:020000040000FA
:100000000C946A100C948B690C94B6690C94E16999
:100010000C9402600C9402600C9402600C940260D8
:100020000C9494100C9494100C9494100C949410C0
:100030000C9494100C9494100C9494100C949410B0
:100040000C9494100C9494100C940D6A0C949410CD
:100050000C9494100C9494100C9494100C94941090
:100060000C9494100C9494100C94C9530C94941008
:100070000C9494100C9494100C9494100C94941070
:100080000C9494100C9494100C949410036EDB3622
:100090003D9A9999993DABAAAA2A3E000000803F5B
:1000A000084AD73B3BCE016E84BCBFFDC12F3D6CDF
:1000B00074319ABD56833DDA3D00C77F11BED9E445
:1000C000BB4C3E916BAAAABE000000803F072C7A71
:1000D000A5BA6CC590DA3B9365FC8BBC53F810FD58
:1000E0003C5692834DBD879D3AB63DCBC9BF5BBEA2
:1000F00073DA0FC93F05A84CCDB2D44EB93836A932
:10010000020C50B9918688083CA6AAAA2ABE000013
:1001100000803F0664EC1B3C04BC163E3BE5B93C4A
:10012000C93C37C29E5A3D660498083EEA69AAAAAD
:100130003E000000803F444547006D200030004EE7
:100140004F20444154410053454C454354454420BD
:10015000574159504F494E543A200050524553533D
:100160002028422920544F2053454C4543540057E2
:100170004159504F494E543A200053454C45435441
:1001800020574159504F494E5400534154454C4C0F
:1001900049544520545241434B4552004445564929
:1001A0004154494F4E204D415000475053204E413D
:1001B0005649474154494F4E0048415244574152D5
:1001C0004520494E464F00414C54494D45544552F7
:1001D000004449474954414C20434F4D50415353EB
:1001E00000475053204E415649474154494F4E0015
:1001F000474D540055544300454550524F4D2052F1
:1002000045434F5645525920444154410064656767
:1002100000444953542E2046524F4D2053544152CE
:100220005420504E5400535441525420504F494E84
:10023000540044415441204C4F4747494E470041E8
:100240004351554952494E472E2E2E005341543AA0
:10025000200045524153494E4720454550524F4D8D
:100260002E2E2E0057524954494E472E2E2E202016
:100270000057524954494E472E2E2E2020005752E7
:100280004954494E472E2E2E20200057524954499A
:100290004E472E2E2E20200057524954494E472EAD
:1002A0002E2E20200057524954494E472E2E2E20E4
:1002B00020004445434F44494E4720454550524F46
:1002C0004D2E2E2E0032342E313132303231005646
:1002D000455253494F4E00312E3730250045455089
:1002E000524F4D003135250052414D003436250026
:1002F000464C4153480053554E5345540053554EB8
:10030000524953450047505320535441525455507D
:100310003A200048444F502056414C55453A200061
:100320006D730055504420494E54455256414C3A45
:100330002000434F4E4E454354494F4E20494E46B0
:100340004F00524543455054494F4E205349474E64
:10035000414C0048444F50200064656700534154AD
:10036000454C4C49544500204B6D2F680053504577
:10037000454400206D00414C544954554445004CBF
:100380004F4E47495455444520004C41544954551B
:10039000444500414351554952494E472053415429
:1003A000454C4C4954455300414351554952494EDF
:1003B0004720534154454C4C495445530041524504
:1003C00020594F5520494E444F4F523F004152450E
:1003D00020594F5520494E444F4F523F002055540D
:1003E00043003000434845434B2054484520414E8C
:1003F00054454E4E4100544F4F204C4F4E470053F2
:1004000049474E414C20524543455054494F4E2098
:10041000544F4F4B004E4F204441544100444947F4
:100420004954414C20434F4D50415353006D616B33
:10043000652E62656C6965766500424F5241204EBB
:10044000590050524F4752414D4D454420425900AA
:100450004E4F20444154412E2E2E00414C544954BD
:10046000554445204752415048005B4641494C4560
:10047000445D204448543131005B20204F4B202004
:100480005D204C534D333033444C4843005B2020B7
:100490004F4B20205D204E454F2D364D005B2020D8
:1004A0004F4B20205D204750494F005B20204F4B91
:1004B00020205D20535344313330360000000000CB
:1004C00000000000001FFF0000000000FFFFE00030
:1004D000000FFFFFFFFFFE000FFFF001FFFF001CFA
:1004E000FF81F83FE700187E09FA0FC300187C214E
:1004F000F803C3001CF080F091E7001FE69060A4B1
:10050000FF001FC24000287F001F890000193F0024
:100510001F050000125F001F300000008F001E88C2
:1005200000000107001C4000000167001C201800AB
:1005300006838039801C000C338038400E0038431D
:10054000C03B000600701DC078C00700C071C070BD
:100550000003038001C0738001870019E07000016F
:10056000CC0000E0778000F8001CE0700000F00094
:1005700000E0700001F00000E0740007F80004E003
:1005800070000F3C0001E07380073E001DC070004A
:10059000003C0001C079C000380079C03A0000007A
:1005A0000009C0384000000063C03D000000001397
:1005B000801C2000000087801EC000000027001E55
:1005C000100000010F001F200000048F001F050015
:1005D00000121F001F890000093F001FC240002CAD
:1005E0007F001FE49040A4FF001CF8A54291E700A3
:1005F000187C214203C300187F094A0FC3001CFF67
:10060000C0483FE7000FFFF803FFFF0007FFFFFFB1
:10061000FFFE0000007FFFE0000000000FFE000072
:1006200000000000000000000000000000000000CA
:100630000001100000000000019000000000000117
:100640005000000000000130000000000001100018
:10065000000000000000000000000000600000003A
:100660000000006000000000000F6F0000000000AC
:100670003F6FC000000000F801F000000001E00042
:10068000780000000380001C0000000703FC0E003F
:1006900000000E0FFF070000001C3FFF83800000DA
:1006A000187FFFE180000038FFFFE1C0000030FF4D
:1006B000FEF0C0000071FFF878E0000061FFE0F894
:1006C00060000063FF80F860008863FE01FC63E067
:1006D000A803F001FC0200ABE3C003FC7BC0ABE36A
:1006E0008003FC7A0050038007FC03E00063F007FE
:1006F000FC60000063FC0FF860000061FE0FF86012
:10070000000071FE1FF8E0000030FF1FF0C0000085
:10071000387F3FE1C00000187F3FC18000001C1FF0
:10072000FF838000000E0FFF070000000701F80E96
:100730000000000380001C00000001E000780000C1
:100740000000F801F0000000003F6FC00000000052
:100750000F6F00000000000060000000000000605B
:1007600000000000000000000000000000F0000099
:100770000000000100000000000000E00000000098
:10078000000010000000000001E000000000000078
:100790000000000004008A40514020C003C0010056
:1007A0000080FFC00080010003C020C051408A408B
:1007B000040087088F889FC8FFF89FC88F88870824
:1007C0000000000000000000000000100000000019
:1007D000000038000000000000FE000000000001E2
:1007E000C71B0000000001C3BF8000000000E3FF42
:1007F000C00000000077E6C0000000003FC3C0005A
:100800000000001B81C0000000000701C0000000C4
:1008100000060380000000000C0300000000000C34
:100820000F80000000000C1FC000000000063FE029
:100830000000000007F6700000000179CE300000D3
:100840000003780E180003F803F80738001FFF8133
:10085000D803F0007F7FC0E001E000F66EE0780092
:10086000C001C46678100000078C631E0000000FF2
:100870009861BE0000000FF861FE00000018FFFF45
:10088000E3000000183FFF8380000010306081808B
:10089000000030306081C00000306060C0C00000E7
:1008A000306060C0C00000606060C06000006060D8
:1008B00060C06000007FFFFFFFE000007FFFFFFFE0
:1008C000E00000606060C0600000606060C06000C8
:1008D00000606060C0600000306060C0C000003038
:1008E000306080C0000030306081C0000010306097
:1008F00081800000183FFF8380000018FFFFE300A5
:1009000000000FF861FE000000070C630E000000FD
:10091000038C631C00000001C4667800000000F630
:100920006EE0000000007FFFC00000000003F80040
:10093000000000000000000000007FFFFFFFFFFF3D
:10094000E0FFFFFFFFFFFFF0C01A2666458030C0C2
:100950001B66666D8030C01FFFFFFF8030C0000047
:1009600000000030C0000000000030C000000000A7
:100970000030C0000000000130C00000000003F0A3
:10098000C0000000000300F8003108C00300F800B8
:100990003108C00300C8003108C003F0F8000000AF
:1009A000000030D800FFFCF00030C801FFFC7800E8
:1009B00030D8018000180030F81DFF80198030C841
:1009C0001DFFC0198030C80180C0180030F80180B8
:1009D000C0180030F80180C0180030C81D80C21B4C
:1009E0008030C80180C2180030F80180C218003081
:1009F000F8018042180030C8018002180030C81D7C
:100A000080021B8030F80180C0180030F80180C0DF
:100A1000180030C80180C0180030C81DFFC0198000
:100A200030F81DFF80198030D8018000180030C8D0
:100A300001FFFFF80030D800FFFFF00030F80000A1
:100A400000000030C8000108003F30F8003108C045
:100A50003130F8003108C02130C0000000002130E2
:100A6000C0000000002130C0000000003F30C00086
:100A70000000003F30C0000000000030C000000057
:100A8000000030C01FFFFFFF8030C01B66666D8016
:100A900030C01A2666458030F8FFFFFFFFFFF0796F
:100AA000FFFFFFFFFFE0FFFFFFFFFFFC00FFFFFF77
:100AB000FFFFFC00FFFFFFFFFFFC00E00000E38002
:100AC0000C00E0000061800C00E0000061800C0080
:100AD000E03F0071800C00E07F8071C00C00E1FFFE
:100AE000E071C00C00E1807030C00C00E38C303845
:100AF000C00C00E73F3838E00C00E73F3838E00C26
:100B000000E6739FF87FFC00E6739800000C00E796
:100B10007F9800000C00E73F3800000C00E39E3097
:100B200000000C00E3807000000C00FFC0FF0FCC41
:100B3000FC00FFE0FF0FCCFC00FFE1FF1F007C008A
:100B4000E0738718000C00E03F0E38000C00E01E38
:100B50001C703FCC00E00C1CE0FFFC00E00438E31C
:100B6000E0FC00E00039C7801E00E00031C7000F44
:100B700000FFC4719C0007C0FFC463380001C0E0DF
:100B800000E3380000C0E000E770000040E001C76B
:100B900060000060E003CEE7CF0F60E0039CC7CFAA
:100BA0009F70E0071CCC0D9870E00738CC0F987050
:100BB000FFFFFFCCEF9F70FFFFFFCFEF01F00000C2
:100BC00000E7EC1F70000000E78C1E600000006072
:100BD000000060000000700000600000007800006D
:100BE000C00000001C0001C00000001C00038000C9
:100BF00000000E00070000000007000E00000000CB
:100C000007FFFC00000000007FF000000000001F54
:100C1000800000002273CF8F2200000000368A2857
:100C200008A2000000002AFA2F0F14000000002282
:100C30008A28088800000000228BCF8F080000005F
:100C400000000000000000000000000000000000A4
:100C50000000000000000000000000000000000094
:100C60000000000000000000000000000000000084
:100C700000000000000007F81F87F81F8000000731
:100C8000F81F87F81F800000060660660660600097
:100C90000006066066066060000007F86067F87F7F
:100CA000E0000007F86067F87FE000000606606675
:100CB000186060000006066066186060000007F8B3
:100CC0001F86066060000007F81F8606606000004F
:100CD00000000000000000000000000024000000F0
:100CE00000000000002C00000000000000FFFFFFDB
:100CF000800000000000802C0080000000000080C8
:100D0000240080000000000080000080000000003F
:100D1000008000008000000000E080000083800070
:100D20000000FFF80FFFFF80000000E00808080344
:100D30008000000000080808000000000000083ED5
:100D400008000000000000081C080000000000006F
:100D50000808080000000000003E3E3E00000000C1
:100D60000000000000000000000000FFFFFF800006
:100D700000000000000000800000000000000000F3
:100D80008000000000000000008000000000000063
:100D90000000800000000000000000800000000053
:100DA00000000001C00000000000000001C00000C1
:100DB000000000000001C000000000000000000072
:100DC00000000000000000000000000000F3E7BE8B
:100DD000F9C8000000008888082228000000008868
:100DE000898823E800000000888888222800000005
:100DF00000F3E73E222F800000000000000000000A
:100E000000FA28A2F3EF1EF9CF222228B28A08A006
:100E10002228B623E8AA8BCF1C222F2A2228A68AB2
:100E20000902222922222722F3E8BC21C8A200FCC1
:100E3000000000000001FF800000000007FFE0004C
:100E40000000001F01F00000000018003800000042
:100E50000030001800000000307C1C000000007012
:100E6000FE0C00000000E1FF0E00000000E3C7865A
:100E700000000000E3838600000000E3838600009A
:100E80000000E3838600000000E3C7860000000046
:100E900061FF0E0000000070FE0E00000000707C7C
:100EA0001C0000000030001C000000003000180092
:100EB00001FE001C0038001FFF801C0070001C0396
:100EC000E00E0070003800F00E00E00070007007C7
:100ED00000C000F000300383C001E0F818018380F7
:100EE00001C1FC180187000183FE1C00C6000187B8
:100EF0008F1C00EE000187071C00FC000187071C07
:100F0000007C000187071C007E0001878F1C00FF0A
:100F10000001C3FE1800E7FF81C1FC1800E7FFC015
:100F2000E0F81800FFFFF0F0007000FF00703000E4
:100F300070007E00303000E0001800301800E00043
:100F40000000301C01C0000000F01E038000FFFF05
:100F5000F006030001FFFFC007060003FFFF0003C8
:100F6000860007800000038E000700000001DC00FF
:100F70000600000000FC000600000001F800070069
:100F8000000003FC0003800000039C0003FFFCCF73
:100F9000FF9C0000FFFCCFFFFC000000000001F8F8
:100FA000000000000000F000000000000000000051
:100FB0000000300000000000007800000000000089
:100FC000CC000040000001C60000E0000003E30088
:100FD0000DC000000637801F80000F071EC7F700F6
:100FE000003F039C6EF380007001FE38318000E307
:100FF00000F3301F0000CF0071E18E00019C00392A
:10100000C3C6000199801D86E60001B3C00F0C62C3
:101010000001B6600618C6000006600C31860000AC
:1010200003C00C630C00000180077618000000006C
:101030000F3C3C000000007D98660000000070C07E
:10104000E3000000003871F1800000001C331BC079
:101050000000000E7F8F60000000076DCE300000A2
:101060000003C0FF180000E001C079980001F00003
:10107000C038F001FF9000001CE01FFFF000000EE0
:10108000C03F71E000000780373B40000003006371
:101090009EC00000000061CEC00000000060E7C0FC
:1010A000000600006073C0000F00006039C0001926
:1010B0008000601CE00019B600600EC0000F360012
:1010C000200780000666003003800000E60018015B
:1010D000C00003CC001C01C000031C001F870000DF
:1010E00000380013FE000003F0001060000003C091
:1010F00000106000000000001FE000000000001F62
:10110000F80000000000101E00000000001FFF009B
:10111000000000003FFF0000000000000000000091
:10112000000000000020000000000000200000007F
:10113000000003FF00000000003C20E00000000071
:10114000C02018000000030020060000000400205A
:101150000100000078002000C00000F800200020FE
:101160000000F8002000100000F800200008000136
:10117000700020000400010001FC00040002000EC9
:1011800023B80200040010207C0100040060207CD1
:101190000100080080207C0080080100203C0080C5
:1011A00010010E2004008010021F200200401004D5
:1011B0001F2001004010041FF801004020040F24EC
:1011C0000100202008022200802020080421008045
:1011D0002020080421008020FFFFFFFFFFFFF020F8
:1011E000080421008020200804210080202008021B
:1011F0002270802020040124F90020200400F8F946
:10120000004010040020F90040100200207200404D
:101210001002002004004008017020040080080033
:10122000F8200800800400F8203001000400F820B5
:1012300040010002007E23800200010001FC000446
:1012400000010000200004000080002000080000D1
:1012500040002000100000200020002000001800A6
:101260002000C00000040020010000000300200650
:1012700000000000E02018000000001C21E0000039
:10128000000003FE0000000000002000000000003D
:101290000000000000000200000100000007000044
:1012A000038000000F800007C00000198000066066
:1012B00000003B8000073000001F000003F000002A
:1012C000FE000001FC0001FC000000FE00013800EF
:1012D0000000320001F00000003E000FFF0000039C
:1012E000FFC01FDE000001EFE0331CA0000AE33066
:1012F000771AA0000963907E1120000A21D03C06D5
:1013000041F809C0F018008606040060000F0801CB
:1013100003C000000014CC80000000002FFF40003C
:101320000000005FFF60000000005FFF6000000041
:10133000009FFE500000000083D950000000008F85
:10134000C310000000009FE210000000009FE79023
:10135000000000008FF0D00000000043F0200000EB
:10136000000041E3A00000000021C7C00000000011
:1013700010C7800000000008C53E000000000606FF
:10138000400300000001F88C078000000000910F6E
:10139000C000000000AB1DC000000000A7198000C5
:1013A0000000008F7F00000000001FFE0000000012
:1013B0000001F000000000000390000000000007A2
:1013C000F000000000000FE000000000001F00001F
:1013D000000000003B80000000000033000000001F
:1013E00000003E0000000000001C000000000000A3
:1013F000080000000000000000000200404210E071
:10140000202150070040088040104040D058001074
:1014100040400880400700402021504210E0020078
:101420004000000000FE0001010002008002388040
:10143000024480024480024480023880020080021C
:10144000008001010000820000440000280000101C
:10145000000000000000000E78F01045001378E056
:101460001140100E41E000000000000000000000EC
:101470000000183E0C18410C18808C18808C1F80BE
:10148000FC18808C18808C18410C183E0C00000051
:101490000000000000000000000000000000000745
:1014A0009CF8082220073E2000A2200F22200000E6
:1014B0000000000000000001FF800200C0047E2048
:1014C0000481200503A00507A0050FA00507A005BE
:1014D00003A0048120047E200200C001FF800000E0
:1014E0000000000000000079F45F25044425E44476
:1014F00025028479F11F00000000000000000000B8
:101500000000000800001C00003E00003E00003EFD
:10151000000000002022022032022AAAAA2026026D
:101520002022020000000000000000000000000077
:1015300000003CE45E4116D141155E4114503CE48C
:10154000500000000000000000000000000040000B
:1015500000E10001F38003FFC0055D600804101086
:101560000208200104400082FFFFFF00000000008D
:1015700000000000000000000000720FBE8A020898
:10158000FA02088A02088BE23E015500015500006C
:10159000000003FF801A00B00280801A00B0020031
:1015A000801A00B00200801A00B00200801A00B059
:1015B00003FF8000000001550001550000000000FD
:1015C00000000F44F01045000E28E00110101E111D
:1015D000E00000000FFC0008060008050008048079
:1015E0000804400804200807F009F0100910100949
:1015F000101009F01009001009001009001008006F
:10160000100FFFF00000001038E0104500104530CA
:101610001045101F38E000000000000000003E00F0
:10162000002200552200003E0100200000200100A1
:10163000000000000055403E00003E00103E00004B
:101640003E00102000002155400000000000004432
:10165000E45F65144455F4444D128445111F0000A5
:10166000003FC03FC03FC03FC03FC03FC020002040
:1016700000200020000C000C0033002100CCC0CC66
:10168000C0210033000C000C0000000000003E5B95
:101690004F5B3E3E6B4F6B3E1C3E7C3E1C183C7EBF
:1016A0003C181C577D571C1C5E7F5E1C00183C18A4
:1016B00000FFE7C3E7FF0018241800FFE7DBE7FFA0
:1016C00030483A060E2629792926407F050507402D
:1016D0007F05253F5A3CE73C5A7F3E1C1C08081CEE
:1016E0001C3E7F14227F22145F5F005F5F06097F2C
:1016F000017F006689956A606060606094A2FFA2C5
:101700009408047E040810207E201008082A1C0873
:10171000081C2A08081E101010100C1E0C1E0C307D
:10172000383E3830060E3E0E060000000000000075
:101730005F00000007000700147F147F14242A7F35
:101740002A12231308646236495620500008070302
:1017500000001C2241000041221C002A1C7F1C2A80
:1017600008083E08080080703000080808080800D3
:101770000060600020100804023E5149453E0042CE
:101780007F400072494949462141494D331814129E
:101790007F1027454545393C4A49493141211109C6
:1017A000073649494936464949291E0000140000B8
:1017B00000403400000008142241141414141400D2
:1017C0004122140802015909063E415D594E7C121E
:1017D00011127C7F494949363E414141227F4141B6
:1017E000413E7F494949417F090909013E41415133
:1017F000737F0808087F00417F41002040413F017E
:101800007F081422417F404040407F021C027F7FBE
:101810000408107F3E4141413E7F090909063E41CF
:1018200051215E7F09192946264949493203017F22
:1018300001033F4040403F1F2040201F3F403840B1
:101840003F631408146303047804036159494D434A
:10185000007F4141410204081020004141417F04C2
:1018600002010204404040404000030708002054A9
:101870005478407F28444438384444442838444409
:10188000287F385454541800087E090218A4A49CD8
:10189000787F0804047800447D40002040403D00EB
:1018A0007F1028440000417F40007C047804787C4D
:1018B000080404783844444438FC182424181824B4
:1018C0002418FC7C08040408485454542404043F9D
:1018D00044243C4040207C1C2040201C3C403040A4
:1018E0003C44281028444C9090907C4464544C44D0
:1018F0000008364100000077000000413608000271
:10190000010204023C2623263C1EA1A161123A409A
:1019100040207A3854545559215555794122545410
:101920007842215554784020545579400C1E52720B
:1019300012395555555939545454593955545458E8
:101940000000457C410002457D420001457C407D10
:101950001211127DF0282528F07C545545002054A2
:10196000547C547C0A097F4932494949323A4444FB
:10197000443A324A4848303A4141217A3A4240207A
:1019800078009DA0A07D3D4242423D3D4040403D0B
:101990003C24FF2424487E4943662B2FFC2F2BFF39
:1019A0000929F620C0887E0903205454794100009B
:1019B000447D413048484A32384040227A007A0A11
:1019C0000A727D0D19317D2629292F2826292929DA
:1019D0002630484D4020380808080808080808380C
:1019E0002F10C8ACBA2F102834FA00007B00000872
:1019F000142A142222142A14085500550055AA55F9
:101A0000AA55AAFF55FF55FF000000FF0010101057
:101A1000FF00141414FF001010FF00FF1010F0104E
:101A2000F0141414FC001414F700FF0000FF00FF72
:101A30001414F404FC141417101F10101F101F149A
:101A400014141F00101010F0000000001F101010E0
:101A5000101F10101010F010000000FF10101010D8
:101A60001010101010FF10000000FF140000FF0005
:101A7000FF00001F10170000FC04F41414171017C7
:101A80001414F404F40000FF00F7141414141414D4
:101A900014F700F7141414171410101F101F141447
:101AA00014F4141010F010F000001F101F000000BC
:101AB0001F14000000FC140000F010F01010FF10C4
:101AC000FF141414FF141010101F00000000F01079
:101AD000FFFFFFFFFFF0F0F0F0F0FFFFFF0000005E
:101AE0000000FFFF0F0F0F0F0F3844443844FC4A2B
:101AF0004A4A347E02020606027E027E026355498D
:101B000041633844443C04407E201E2006027E028D
:101B10000299A5E7A5991C2A492A1C4C7201724C0E
:101B2000304A4D4D303048784830BC625A463D3ED0
:101B3000494949007E0101017E2A2A2A2A2A444471
:101B40005F444440514A444040444A51400000FFF1
:101B50000103E080FF000008086B6B083612362492
:101B600036060F090F0600001818000000101000BC
:101B70003040FF0101001F01011E00191D17120056
:101B80003C3C3C3C00000000002200FF2100000122
:101B900003070F1F3F7F0080C0E0F0F8FCFEDB4032
:101BA000A4A62EAF2000A1C8D300408DAED580A83A
:101BB00000006000000000000000000000000000C5
:101BC00000E0000000000000000000000000000134
:101BD000E00000000000000000000000000001F034
:101BE0000000000000000000000000000003F00002
:101BF00000000000000000000000000007F00000EE
:101C0000000000000000000000000007F8000000D5
:101C1000000000000000000000000FF800000003BA
:101C2000C0007E000001E0007F0FF800000003C04C
:101C300000FE000001E000FFEFF800000003C0001C
:101C4000FE000001E000FFFFF800000003C000F00C
:101C50000000000F007FFE7FC0000003C000F00006
:101C600000000F003FFE7FF83FF1FBCFFCFEF3BC0E
:101C70003DEFE01FFE7FFF7FFBFFDFFEFEFFBC3D71
:101C8000EFE01FC6FFFF7FFBFFDFFEFEFFBC3DEF67
:101C9000E00FE3C7FE787BC3DE1EF0FFBC3DEF0024
:101CA00007FF87FC787BC3DE1EF0F83C3DEF0001A8
:101CB000FFFFF0007BC3C01EF0F03C3DEF0001F3DE
:101CC0007FE03FFBC3CFFEF0F03C3DEF0003E33F7E
:101CD000807FFBC3DFFEF0F03C3DEF0007E73C00F8
:101CE000787BC3DE1EF0F03C3DEF0007FFBE0078BE
:101CF0007BC3DE1EF0F03C3DEF0007FFFE00787B6B
:101D0000C3DE1EF0F03C3DEF000FFFFE007FFBFF47
:101D1000DFFEF0F03FFDEFE00FFFFF007FFBFFDF96
:101D2000FEF0F03FFDEFE00FF9FF003E79F9CF9EA6
:101D3000F0F01F3DE7E01FF1FF0000000000000091
:101D400000000000001F80FF007FFFFFFFFFFFFF7C
:101D5000FFFFFFE01C007F007FFFFFFFFEB46D88E8
:101D60008D18E000001F007FFFFFFFFE95AD7DB5E1
:101D700077E000000F007FFFFFFFFEA5AD9D8D19EE
:101D8000E0000006007FFFFFFFFEB5ADEDB57EE091
:101D900000000000000180000000000000000000C2
:101DA000038000000000000000000007C0000000E9
:101DB00000000000000007C000000000000000005C
:101DC000000FC00000000000000000001FE0000045
:101DD000000000000000001FE00000000000000004
:101DE00000003FE00000000000000000003FF000A5
:101DF00000000000000000007FF000000000000074
:101E0000001FF87FF0000000000000003FFE7FF0A0
:101E1000000000000000003FFF7FF0000000000015
:101E200000001FFFFBE0000000000000000FFFF9B2
:101E3000FFC00000000000000FFFF9FFF8000000E5
:101E400000000007FFF1FFFF00000000000003FC9E
:101E500073FFFF80000000000001FE3FFFFF8000D5
:101E60000000000000FF1E0FFF0000000000000047
:101E70007FFE1FFC000000000000003FFFFFF80095
:101E80000000000000000FDFFFE000000000000085
:101E9000001F19FFC0000000000000003F3CFF00D1
:101EA000000000000000007E7CF800000000000040
:101EB00000007FFE7C0000000000000000FFFFFC2F
:101EC0000000000000000000FFFFFE000000000016
:101ED000000000FFFFFE0000000000000001FFEF17
:101EE000FE0000000000000001FFCFFE0000000027
:101EF00000000003FF07FE0000000000000003FCDC
:101F000007FE0000000000000003F003FE000000D8
:101F100000000000018000FE000000000000000042
:101F200000007E000000000000000000003E0000F5
:101F300000000000000000000C000000000000078E
:101F40008000FC000003C0000000078001FC0000CE
:101F500003C0000000078001FC000003C000000077
:101F6000078001E00000001E000000078001E00083
:101F700000001E007FE3F79FF9FDE7787BDFC0FFDD
:101F8000F7FFBFFDFDFF787BDFC0FFF7FFBFFDFD63
:101F9000FF787BDFC0F0F787BC3DE1FF787BDE0098
:101FA000F0F787BC3DE1F0787BDE0000F787803DED
:101FB000E1E0787BDE007FF7879FFDE1E0787BDE64
:101FC00000FFF787BFFDE1E0787BDE00F0F787BC1C
:101FD0003DE1E0787BDE00F0F787BC3DE1E0787B17
:101FE000DE00F0F787BC3DE1E0787BDE00FFF7FF25
:101FF000BFFDE1E07FFBDFC0FFF7FFBFFDE1E07F5A
:10200000FBDFC07CF3F39F3DE1E03E7BCFC00000EF
:10201000000000000000000000FFFFFFFFFFFFFFC7
:10202000FFFFFFC0FFFFFFFFFD68DB111A31C0FF9C
:10203000FFFFFFFD2B5AFB6AEFC0FFFFFFFFFD4BC9
:102040005B3B1A33C0FFFFFFFFFD6B5BDB6AFDC02C
:102050000000000203000A0B00000000050409084C
:102060000000000000000000000000000000000070
:102070000102040810204080010204081020408062
:102080000102040810204080010204081020408052
:102090000202020202020202040404040404040410
:1020A0000303030303030303010101010101010110
:1020B0000000200023002600290000002200250047
:1020C00028002B0000002100240027002A00721A9B
:1020D000A752EB1A11241FBECFEFD0E4DEBFCDBF55
:1020E00012E0A0E0B1E0ECEFF9EE00E00BBF02C0BF
:1020F00007900D92A63FB107D9F72AE0A6EFB2E00C
:1021000001C01D92A83BB207E1F710E1C9E6D0E19A
:1021100004C02197FE010E94EA72C736D107C9F7B1
:102120000E940C6E0C94F1740C9400000F931F939A
:102130000E94576A00916E0310916F032091700303
:1021400030917103601B710B820B930B693C71051D
:102150008105910560F08091340991E08927809391
:1021600034099093390910923B0110923A018DEE97
:1021700098E00E948F4C0E94576A60936E037093A0
:102180006F0380937003909371031F910F910895D3
:102190000C94DB740C94E374CF92DF92EF92FF9275
:1021A0000F931F9381E00E94956B892B51F50E943C
:1021B000576A009172031091730320917403309158
:1021C0007503601B710B820B930B693C71058105D4
:1021D000910560F080913509909136098097909330
:1021E00036098093350981E0809339090E94576A46
:1021F00060937203709373038093740390937503D9
:10220000D1CF4091370950913809609135097091CB
:102210003609605E7F4FD12CC12C83E0E82EF12C73
:1022200000E210E020E230E08DEE98E00E948B4565
:102230001F910F91FF90EF90DF90CF900895CF9274
:10224000DF92EF92FF920F931F93CF93C1E080E054
:102250000E94956B892B09F040C00E94576A00913B
:102260006A0310916B0320916C0330916D03601B26
:10227000710B820B930B693C71058105910558F038
:102280008091350990913609809690933609809314
:102290003509C09339090E94576A60936A037093A5
:1022A0006B0380936C0390936D03409137095091B9
:1022B0003809609135097091360960527109D12C45
:1022C000C12C83E0E82EF12C00E210E020E230E0A7
:1022D0008DEE98E00E948B45BACFCF911F910F9160
:1022E000FF90EF90DF90CF9008954F925F926F92A2
:1022F0007F928F929F92AF92BF92CF92DF92EF9296
:10230000FF920F931F93CF93DF93EC016A017B0140
:1023100020E030E0A901CB01B6010E94266F61E008
:1023200087FF60E0CE010E94CA106AE070E080E0A2
:1023300090E00E94886AC701B6010E94A26F8B01DB
:1023400077FF04C000271127061B170BB801110FD8
:10235000880B990B0E94DA6F9B01AC01C701B60193
:102360000E942C6E6B017C0120E030E048EC52E4CE
:102370000E9489710E94A26F2B01072E000C880B0E
:10238000990B0E94DA6F2AE037ED43E25CE30E948A
:1023900089719B01AC01C701B6010E942C6E4B01F3
:1023A0005C0120E030E44CE156E40E9489710E9417
:1023B000A26F6B01602FCE0101960E94CA106AE0E5
:1023C00070E080E090E00E94886A642DCE01029661
:1023D0000E94CA106AE070E080E090E00E94886A83
:1023E0006C2DCE0103960E94CA106AE070E080E076
:1023F00090E00E94886AB601DD0C880B990B0E9460
:10240000DA6F27E137EB41ED58E30E9489719B01B8
:10241000AC01C501B4010E942C6E20E034E244E717
:1024200059E40E9489710E94A26FCE0104960E9415
:10243000CA106AE070E080E090E0DF91CF911F91D8
:102440000F91FF90EF90DF90CF90BF90AF909F9053
:102450008F907F906F905F904F900C94886A4F920E
:102460005F926F927F928F929F92AF92BF92CF9224
:10247000DF92EF92FF92CF93DF9300D000D0CDB7E1
:10248000DEB77C010E94C81089836AE070E080E0BA
:1024900090E00E94886AC70101960E94C810482EE9
:1024A000512C6AE070E080E090E00E94886AC701E9
:1024B00002960E94C810A82EB12C6AE070E080E05D
:1024C00090E00E94886AC70103960E94C810882E77
:1024D000912C6AE070E080E090E00E94886AC70179
:1024E00004960E94C810C82ED12C6AE070E080E0EB
:1024F00090E00E94886AB501BB0C880B990B052CF3
:10250000000C66087708092C000CAA08BB080D2CE3
:10251000000CEE08FF082981213009F050C00E940C
:10252000DA6F2AE037ED43E25CE30E948971698348
:102530007A838B839C83C301B2010E94DA6F9B0173
:10254000AC0169817A818B819C810E942D6E2B0167
:102550003C01C501B4010E94DA6F27E137EB41ED80
:1025600058E30E9489719B01AC01C301B2010E9432
:102570002D6E4B015C01C701B6010E94DA6F2DEB95
:1025800037E346E855E30E9489719B01AC01C50120
:10259000B4010E942D6E90580F900F900F900F90E5
:1025A000DF91CF91FF90EF90DF90CF90BF90AF90F1
:1025B0009F908F907F906F905F904F9008950E94B2
:1025C000DA6F2AE037ED43E25CE30E9489716983A8
:1025D0007A838B839C83C301B2010E94DA6F9B01D3
:1025E000AC0169817A818B819C810E942D6E2B01C7
:1025F0003C01C501B4010E94DA6F27E137EB41EDE0
:1026000058E30E9489719B01AC01C301B2010E9491
:102610002D6E4B015C01C701B6010E94DA6F2DEBF4
:1026200037E346E855E30E9489719B01AC01C5017F
:10263000B4010E942D6EB0CFCF92DF92EF92FF9245
:102640006B017C0120E030E84CE253EC0E947C718D
:10265000181654F420E030E84DE153ECC701B60100
:102660000E94266F87FDD4C120E030E84DE153EC95
:10267000C701B6010E947C71181654F420E030E8BE
:102680004EE053ECC701B6010E94266F87FDC3C11F
:1026900020E030E84EE053ECC701B6010E947C71A7
:1026A000181654F420E030E04FEF52ECC701B601A9
:1026B0000E94266F87FDB2C120E030E04FEF52EC60
:1026C000C701B6010E947C71181654F420E030E076
:1026D00041EE52ECC701B6010E94266F87FDA1C1F1
:1026E00020E030E041EE52ECC701B6010E947C715F
:1026F000181654F420E030E043EC52ECC701B60168
:102700000E94266F87FD90C120E030E043EC52E448
:10271000C701B6010E947C71181654F420E030E025
:1027200045EA52ECC701B6010E94266F87FD7FC1C2
:1027300020E030E045EA52ECC701B6010E947C710E
:10274000181654F420E030E047E852ECC701B60117
:102750000E94266F87FD6EC120E030E047E852EC12
:10276000C701B6010E947C71181654F420E030E0D5
:1027700042E552ECC701B6010E94266F87FD5DC19C
:1027800020E030E042E552ECC701B6010E947C71C6
:10279000181654F420E030E046E152ECC701B601CF
:1027A0000E94266F87FD4CC120E030E046E152ECEC
:1027B000C701B6010E947C71181654F420E030E085
:1027C00044EB51ECC701B6010E94266F87FD3BC167
:1027D00020E030E044EB51ECC701B6010E947C716F
:1027E000181654F420E030E040EF50ECC701B60179
:1027F0000E94266F87FD2AC120E030E040EF50ECB8
:10280000C701B6010E947C71181654F420E030E034
:1028100040EF50E4C701B6010E94266F87FD3AC120
:1028200020E030E040EF50E4C701B6010E947C7127
:10283000181654F420E030E044EB51E4C701B6012F
:102840000E94266F87FD05C120E030E044EB51E493
:10285000C701B6010E947C71181654F420E030E0E4
:1028600046E152E4C701B6010E94266F87FDF4C01D
:1028700020E030E046E152E4C701B6010E947C71DD
:10288000181654F420E030E042E552E4C701B601E6
:102890000E94266F87FDE3C020E030E042E552E46D
:1028A000C701B6010E947C71181654F420E030E094
:1028B00047E852E4C701B6010E94266F87FDD2C0E7
:1028C00020E030E047E852E4C701B6010E947C7185
:1028D000181654F420E030E045EA52E4C701B6018E
:1028E0000E94266F87FDC1C020E030E045EA52E437
:1028F000C701B6010E947C71181654F420E030E044
:1029000043EC52E4C701B6010E94266F87FDB0C0B8
:1029100020E030E043EC52E4C701B6010E947C7134
:10292000181654F420E030E041EE52E4C701B6013D
:102930000E94266F87FD9FC020E030E041EE52E408
:10294000C701B6010E947C71181654F420E030E0F3
:102950004FEF52E4C701B6010E94266F87FD8EC07B
:1029600020E030E04FEF52E4C701B6010E947C71D5
:10297000181654F420E030E84EE053E4C701B601E5
:102980000E94266F87FD7DC020E030E84EE053E4D2
:10299000C701B6010E947C71181654F420E030E89B
:1029A0004DE153E4C701B6010E94266F87FD6CC05C
:1029B00020E030E84DE153E4C701B6010E947C718C
:1029C000181654F420E030E84CE253E4C701B60195
:1029D0000E94266F87FD5BC020E030E84CE253E4A4
:1029E000C701B6010E947C7118160CF053C020E09C
:1029F00030E84BE353E4C701B6010E94266F87FF1E
:102A000049C08CE090E0FF90EF90DF90CF90089568
:102A100085EF9FEFF8CF86EF9FEFF5CF87EF9FEF22
:102A2000F2CF88EF9FEFEFCF89EF9FEFECCF8AEFE8
:102A30009FEFE9CF8BEF9FEFE6CF8CEF9FEFE3CFD8
:102A40008DEF9FEFE0CF8EEF9FEFDDCF8FEF9FEF0A
:102A5000DACF81E090E0D7CF82E090E0D4CF83E07E
:102A600090E0D1CF84E090E0CECF85E090E0CBCF76
:102A700086E090E0C8CF87E090E0C5CF88E090E0A6
:102A8000C2CF89E090E0BFCF8AE090E0BCCF8BE07E
:102A900090E0B9CF90E080E0B6CF60E085E10E94A1
:102AA000676B6AE070E080E090E00E94886A61E015
:102AB00085E10C94676B8F929F92AF92BF92CF92F9
:102AC000DF92EF92FF92CF93DF9320E030E0A901F5
:102AD0006091240170912501809126019091270138
:102AE0000E94266F61E087FF60E084E090E00E9432
:102AF000CA106AE070E080E090E00E94886AC090AE
:102B00002401D0902501E0902601F0902701C70113
:102B1000B6010E94A26FEB0177FF04C0CC27DD272E
:102B2000C61BD70BBE01DD0F880B990B0E94DA6F15
:102B30009B01AC0120937B0930937C0940937D0974
:102B400050937E09C701B6010E942C6E6B017C0177
:102B500020E030E048EC52E40E9489710E94A26FAC
:102B6000072E000C880B990B0E94DA6F4B015C0159
:102B70002AE037ED43E25CE30E9489719B01AC01DE
:102B8000C701B6010E942C6E6B017C0120E030E48D
:102B90004CE156E40E9489710E94A26F072E000C3E
:102BA000880B990B0E94DA6F80927F0990928009BE
:102BB000A0928109B092820960938309709384097D
:102BC000809385099093860927E137EB41ED58E31F
:102BD0000E9489719B01AC01C701B6010E942C6E55
:102BE00020E034E244E759E40E9489710E94A26F18
:102BF000072E000C880B990B0E94DA6F60938709EF
:102C0000709388098093890990938A0910927609B4
:102C1000109275096C2F90E080E00E94CA1081E04C
:102C200090E09093740980937309C0917309D091D7
:102C30007409C430D10544F5E0917509F091760925
:102C4000EE0FFF1FEE0FFF1FE158F64F60817181FD
:102C5000828193810E94A96FCE010E94CA10809147
:102C6000750990917609019690937609809375097C
:102C70006AE070E080E090E00E94886A80917309C9
:102C8000909174090196CDCF20E030E0A9016091C8
:102C900028017091290180912A0190912B010E94B5
:102CA000266F61E087FF60E089E090E00E94CA1033
:102CB0006AE070E080E090E00E94886AC09028019D
:102CC000D0902901E0902A01F0902B01C701B601B4
:102CD0000E94A26FEB0177FF04C0CC27DD27C61B43
:102CE000D70BBE01DD0F880B990B0E94DA6F9B0199
:102CF000AC0120938F093093900940939109509330
:102D00009209C701B6010E942C6E6B017C0120E084
:102D100030E048EC52E40E9489710E94A26F072EB5
:102D2000000C880B990B0E94DA6F4B015C012AE0C2
:102D300037ED43E25CE30E9489719B01AC01C7015E
:102D4000B6010E942C6E6B017C0120E030E44CE166
:102D500056E40E9489710E94A26F072E000C880B16
:102D6000990B0E94DA6F8092930990929409A09235
:102D70009509B0929609609397097093980980938A
:102D8000990990939A0927E137EB41ED58E30E94A6
:102D900089719B01AC01C701B6010E942C6E20E035
:102DA00034E244E759E40E9489710E94A26F072E21
:102DB000000C880B990B0E94DA6F60939B0970934B
:102DC0009C0980939D0990939E0910927609109218
:102DD00075096C2F85E090E00E94CA1086E090E0B3
:102DE0009093740980937309C0917309D091740909
:102DF000C930D10544F5E0917509F0917609EE0FDF
:102E0000FF1FEE0FFF1FED56F64F6081718182812B
:102E100093810E94A96FCE010E94CA10809175090A
:102E200090917609019690937609809375096AE0EE
:102E300070E080E090E00E94886A80917309909130
:102E400074090196CDCFDF91CF91FF90EF90DF9085
:102E5000CF90BF90AF909F908F9008954F925F92C8
:102E60006F927F928F929F92AF92BF92CF92DF929A
:102E7000EF92FF920F931F93CF93DF9300D000D078
:102E8000CDB7DEB790E080E00E94C810682F70E0F8
:102E900090E080E00E94D86F60937B0970937C097A
:102EA00080937D0990937E0910927609109275099E
:102EB00081E090E090937409809373098091730985
:102EC000909174098430910574F50E94C810209186
:102ED0007509309176093A8329838901000F111F02
:102EE000000F111F0158164F682F70E090E080E02E
:102EF0000E94D86FF8016083718382839383298154
:102F00003A812F5F3F4F30937609209375096AE02D
:102F100070E080E090E00E94886A8091730990914F
:102F200074090196C7CF84E090E00E94C8104090D9
:102F30007B0950907C0960907D0970907E092091FA
:102F40007F0930918009409181095091820929833C
:102F50003A834B835C838090830990908409A0908E
:102F60008509B0908609C0908709D0908809E090C3
:102F70008909F0908A092AE037ED43E25CE3813069
:102F800009F085C069817A818B819C810E94897159
:102F9000A30192010E942D6E2B013C0127E137EB2A
:102FA00041ED58E3C501B4010E9489719B01AC0158
:102FB000C301B2010E942D6E4B015C012DEB37E382
:102FC00046E855E3C701B6010E9489719B01AC0137
:102FD000C501B4010E942D6E9058609377097093DB
:102FE00078098093790990937A0985E090E00E94AE
:102FF000C810682F70E090E080E00E94D86F609366
:103000008F0970939009809391099093920910927F
:1030100076091092750986E090E090937409809388
:1030200073098091730990917409893091050CF0AE
:1030300059C00E94C81040917509509176095A8371
:1030400049838A01000F111F000F111F0D56164FE3
:10305000682F70E090E080E00E94D86FF8016083F4
:1030600071838283938329813A812F5F3F4F30930D
:103070007609209375096AE070E080E090E00E9494
:10308000886A80917309909174090196C6CF69810D
:103090007A818B819C810E948971A30192010E9497
:1030A0002D6E2B013C0127E137EB41ED58E3C501C3
:1030B000B4010E9489719B01AC01C301B2010E945D
:1030C0002D6E4B015C012DEB37E346E855E3C7015C
:1030D000B6010E9489719B01AC01C501B4010E9437
:1030E0002D6E7BCF89E090E00E94C81040908F0940
:1030F00050909009609091097090920920919309E5
:1031000030919409409195095091960929833A8309
:103110004B835C838090970990909809A0909909BF
:10312000B0909A09C0909B09D0909C09E0909D09AD
:10313000F0909E092AE037ED43E25CE3813009F02C
:1031400048C069817A818B819C810E948971A30129
:1031500092010E942D6E2B013C0127E137EB41EDDE
:1031600058E3C501B4010E9489719B01AC01C30100
:10317000B2010E942D6E4B015C012DEB37E346E856
:1031800055E3C701B6010E9489719B01AC01C501DD
:10319000B4010E942D6E905860938B0970938C0936
:1031A00080938D0990938E090F900F900F900F9040
:1031B000DF91CF911F910F91FF90EF90DF90CF9013
:1031C000BF90AF909F908F907F906F905F904F9047
:1031D000089569817A818B819C810E948971A30104
:1031E00092010E942D6E2B013C0127E137EB41ED4E
:1031F00058E3C501B4010E9489719B01AC01C30170
:10320000B2010E942D6E4B015C012DEB37E346E8C5
:1032100055E3C701B6010E9489719B01AC01C5014C
:10322000B4010E942D6EB8CF0F931F930E94576A6E
:1032300000912D0910912E0920912F09309130090C
:10324000601B710B820B930B643F714081059105EC
:1032500030F08091310991E08927809331096091A4
:10326000310980E01F910F910C94676BCF92DF9230
:10327000EF92FF920F931F93CF93DF93EC0161E0E6
:103280008DEE98E00E94114A81E090E09093000951
:103290008093FF089093FE088093FD08209709F023
:1032A00045C086E190E09093FA088093F90889E39D
:1032B00090E09093FC088093FB0861EE71E08DEE46
:1032C00098E00E94FA6BCC24C394D12C04E3E02E46
:1032D000F12C04E310E020EC37E050E040E066E23F
:1032E00070E08DEE98E00E947746C530D10509F078
:1032F00065C089E190E09093FA088093F90889E32A
:1033000090E09093FC088093FB086CE971E08DEEEF
:1033100098E00E94FA6BCC24C394D12C34E3E32EC2
:10332000F12C04E310E022E231E187C0C130D10585
:10333000E9F483E190E09093FA088093F90889E337
:1033400090E09093FC088093FB0861ED71E08DEEB6
:1033500098E00E94FA6BCC24C394D12CB4E3EB2EFA
:10336000F12C04E310E028E236E0B7CFC230D105FB
:1033700009F044C085E290E09093FA088093F90840
:1033800089E390E09093FC088093FB0867EC71E080
:103390008DEE98E00E94FA6BCC24C394D12CF4E318
:1033A000EF2EF12C04E310E02CEB34E050E040E091
:1033B00066E270E08DEE98E00E947746269709F06D
:1033C00044C08DE090E09093FA088093F90889E377
:1033D00090E09093FC088093FB086AE871E08DEE22
:1033E00098E00E94FA6BCC24C394D12C94E3E92E8C
:1033F000F12C04E310E02EE832E11FC0C330D10508
:1034000081F589E190E09093FA088093F90889E3C7
:1034100090E09093FC088093FB0869EB71E08DEEDF
:1034200098E00E94FA6BCC24C394D12C74E3E72E6D
:10343000F12C04E310E02AE339E050E040E066E2DA
:1034400070E08DEE98E00E9477468DEE98E0DF9177
:10345000CF911F910F91FF90EF90DF90CF900C9440
:103460002450C430D10509F040CF86E190E090931C
:10347000FA088093F90889E390E09093FC08809320
:10348000FB086AEA71E08DEE98E00E94FA6BCC24AA
:10349000C394D12C54E3E52EF12C04E310E026EA8A
:1034A0003AE0CBCFCF93DF93209139092223A1F0CB
:1034B000EC018DEE98E00E948F4CCE010E943619EF
:1034C00068EE73E080E090E00E94886A8DEE98E0FC
:1034D0000E948F4C1092390981E080934701DF915F
:1034E000CF9108958F929F92AF92BF92CF92DF9229
:1034F000EF92FF920F93E3E7F9E0118210821382BB
:103500001282E2E3F9E011821082128214821382A5
:1035100016821582178210861186128613861486EB
:1035200080E3EDE9F1E0A3E4B9E001900D928A9522
:10353000E1F780EA882E86E8982EAA24A394B12C7D
:1035400090E8C92E9AE1D92E96E0E92EF12C0FEFE2
:1035500023EA39E040E460E88DEE98E00E94F54A05
:103560008FEB98E00E94035C82E198E00E9480610A
:1035700020E044E163E183EF97E00E94D96062E0DC
:1035800082ED97E00E943A6921E030E045EE51E09B
:1035900062E178E086EA97E00E940F6922E030E07D
:1035A00045EE51E062E178E08AE797E00E940F691A
:1035B00023E030E045EE51E062E178E08EE497E010
:1035C0000F91FF90EF90DF90CF90BF90AF909F90C2
:1035D0008F900C940F6983EF97E00E947E608DEED0
:1035E00098E00C94404BAF92BF92CF92DF92EF9253
:1035F000FF920F931F93CF93DF9301E021E04CE301
:1036000062E08DEE98E00E94AD4C811103C00E94F3
:103610001419FDCF8DEE98E00E948F4C61E08DEE85
:1036200098E00E94114AC1E0D0E0D0930009C09315
:10363000FF08D093FE08C093FD08D093FA08C0930A
:10364000F908D093FC08C093FB086BEA74E08DEE98
:1036500098E00E94FA6B8DEE98E00E94245064EF8F
:1036600071E080E090E00E94886A62E082E00E945F
:103670002B6B62E081E00E942B6B62E080E00E9495
:103680002B6B42E050E066E970E182E00E945C69E9
:10369000D093FA08C093F9088BE090E09093FC086F
:1036A0008093FB086DE974E08DEE98E00E94FA6B60
:1036B0008DEE98E00E94245064EF71E080E090E08D
:1036C0000E94886A40E855E260E070E083EF97E08E
:1036D0000E9404612EE9A22E26E0B22E3EEEC32EF9
:1036E00035E0D32E4EE3E42E45E0F42E0EE814E050
:1036F000C4E0D0E09E0145EE51E062E178E0C50112
:103700000E94EE689E012F5F3F4F45EE51E062E15F
:1037100078E0C6010E94EE689E012E5F3F4F45EEA5
:1037200051E062E178E0C7010E94EE689E012D5FE2
:103730003F4F45EE51E062E178E0C8010E94EE683B
:103740008CE2A80EB11C24968CE2C80ED11C8CE22F
:10375000E80EF11C045D1F4FC431D10559F6C1E0DC
:10376000D0E0D093FA08C093F90885E190E09093F7
:10377000FC088093FB08D0930009C093FF08D09306
:10378000FE08C093FD086DE874E08DEE98E00E949D
:10379000FA6B8DEE98E00E94245064EF71E080E0B7
:1037A00090E00E94886A83EA99E00E94095242E010
:1037B00050E064E070E08FEB98E00E94015E8FEBD8
:1037C00098E00E946E5C86E0EDECF1E0A1EDB8E0DF
:1037D00001900D928A95E1F786E0E3EDF1E0ABEC24
:1037E000B8E001900D928A95E1F7D093FA08C09362
:1037F000F9088FE190E09093FC088093FB0869E75B
:1038000074E08DEE98E00E94FA6B8DEE98E00E94D5
:10381000245064EF71E080E090E00E94886AD093C9
:10382000FA08C093F90889E290E09093FC0880932D
:10383000FB086AE674E08DEE98E00E94FA6B8DEE6C
:1038400098E00E9424508091230191E08927809381
:103850002301C5E0D0E0DD24D394F12CE12C07E076
:1038600010E027E030E043E350E061E070E08DEEEF
:1038700098E00E94AA40809123018D258093230126
:1038800021E030E03093FA082093F90823E330E098
:103890003093FC082093FB086FE5811101C060E2C2
:1038A0008DEE98E00E94266C8DEE98E00E942450E8
:1038B0006CE271E080E090E00E94886A219769F6EE
:1038C00068EE73E080E090E00E94886A8DEE98E0F8
:1038D0000E948F4CCC24C394D12C9CE3E92EF12C74
:1038E00008E410E022E13CE042E050E06CE170E0EE
:1038F0008DEE98E00E9477468DEE98E00E9424506D
:1039000068EB7BE080E090E00E94886A8DEE98E0B2
:10391000DF91CF911F910F91FF90EF90DF90CF90AB
:10392000BF90AF900C948F4C4F925F926F927F92AA
:10393000AF92BF92CF92DF92EF92FF920F931F93BD
:10394000CF93DF9300D000D0CDB7DEB782E00E94E6
:10395000956B892B19F481E080934801909148017F
:1039600080914701981303C081E0809339098091C9
:103970003909882309F449C061E08DEE98E00E947E
:10398000114A81E090E0909300098093FF089093A2
:10399000FE088093FD088DEE98E00E948F4CCC24A9
:1039A000C394D12C56E3E52EF12C06E310E02EE271
:1039B0003EE050E040E068E270E08DEE98E00E946A
:1039C00077468CE190E09093FA088093F90889E3B8
:1039D00090E09093FC088093FB0862E372E08DEE28
:1039E00098E00E94FA6B8DEE98E00E94245068EEF9
:1039F00073E080E090E00E94886A8DEE98E00E947B
:103A00008F4C10923909109247018DEE98E00E9478
:103A10008F4C61E08DEE98E00E94114A81E090E0C9
:103A2000909300098093FF089093FE088093FD080F
:103A30002FE1C22ED12CD092FA08C092F9089093AF
:103A4000FC088093FB0866E272E08DEE98E00E942D
:103A5000FA6B81E090E09093FA088093F9088BE08C
:103A600090E09093FC088093FB08409124015091D2
:103A70002501609126017091270126E030E08DEE4E
:103A800098E00E94C66D6CE28DEE98E00E94266C74
:103A9000409128015091290160912A0170912B01D8
:103AA00026E030E08DEE98E00E94C66D81E090E067
:103AB0009093FA088093F90885E190E09093FC08D0
:103AC0008093FB08EE24E394F12C09E010E020E859
:103AD00030E044E150E070E060E08DEE98E00E945C
:103AE000AA40109200091092FF081092FE0810924E
:103AF000FD0861E172E08DEE98E00E94FA6BF092B1
:103B0000FA08E092F908D092FC08C092FB08F09203
:103B10000009E092FF08F092FE08E092FD0882E1C1
:103B200098E00E941E655B016C0182E198E00E94B2
:103B3000F2647B018C012091280130912901409190
:103B40002A0150912B0160912401709125018091EF
:103B50002601909127010E94FE6260932C017093D0
:103B60002D0180932E0190932F0120E030E0A901D8
:103B70006091240170912501809126019091270187
:103B80000E94266F811117C020E030E0A9016091EA
:103B900028017091290180912A0190912B010E94A6
:103BA000266F811108C010922C0110922D011092E5
:103BB0002E0110922F0140912C0150912D01609106
:103BC0002E0170912F0122E030E08DEE98E00E94EE
:103BD000C66D6DE68DEE98E00E94266C6CE28DEE6F
:103BE00098E00E94266CA0902801B0902901C09016
:103BF0002A01D0902B014090240150902501609023
:103C000026017090270182E198E00E941E65698379
:103C10007A838B839C8382E198E00E94F264830123
:103C2000720129813A814B815C810E94EE63AB0174
:103C3000BC0122E030E08DEE98E00E94C66D6DE0A0
:103C400072E08DEE98E00E94FA6B0E942E17EE242F
:103C5000E394F12C09E010E020E830E048E250E085
:103C600070E060E08DEE98E00E94AA40109200099A
:103C70001092FF081092FE081092FD08F092FA08C8
:103C8000E092F90889E290E09093FC088093FB08A9
:103C900068EF71E08DEE98E00E94FA6BF092FA08FE
:103CA000E092F90883E390E09093FC088093FB088E
:103CB000F0920009E092FF08F092FE08E092FD0801
:103CC00040917709509178096091790970917A094A
:103CD00026E030E08DEE98E00E94C66D6CE28DEE3D
:103CE00098E00E94266C40918B0950918C0960915C
:103CF0008D0970918E0926E030E08DEE98E00E94EB
:103D0000C66D8DEE98E00E9424508DEE98E00F90E5
:103D10000F900F900F90DF91CF911F910F91FF9017
:103D2000EF90DF90CF90BF90AF907F906F905F90BB
:103D30004F900C948F4C5F926F927F928F929F92D4
:103D4000AF92BF92CF92DF92EF92FF920F931F93A9
:103D5000CF93DF9301E010E089E1882E912C9BE264
:103D6000A92EB12C2BE0C22ED12C3CE1E32EF12C5C
:103D700043E3642E712C82E00E94956B892BA1F0A5
:103D8000C1E080E00E94956B892B09F06AC08DEE3E
:103D900098E00E948F4C10923B0110923A01C09320
:103DA00039010E94941CEDCF80E00E94956BEC01DC
:103DB000892B31F710923309109232098DEE98E079
:103DC0000E948F4C109300090093FF081093FE0887
:103DD0000093FD0861E08DEE98E00E94114A5524A1
:103DE00053942091470125252093470130E040E27C
:103DF00050E0BE018DEE98E00E94254A2196C03821
:103E0000D10579F79092FA088092F9081093FC088E
:103E10000093FB0862E474E08DEE98E00E94FA6B78
:103E2000B092FA08A092F908D092FC08C092FB0860
:103E30006AE374E08DEE98E00E94FA6BF092FA0863
:103E4000E092F9087092FC086092FB086DE274E061
:103E50008DEE98E00E94FA6B8DEE98E00E9424505F
:103E60008ACFDF91CF911F910F91FF90EF90DF905C
:103E7000CF90BF90AF909F908F907F906F905F900A
:103E800008954F925F926F927F928F929F92AF921E
:103E9000BF92CF92DF92EF92FF920F931F93CF9337
:103EA000DF938FEB98E00E94CD5D6091C508709123
:103EB000C608072E000C880B990B0E94DA6F6B0165
:103EC0007C016091C7087091C808072E000C880B10
:103ED000990B0E94DA6FA70196010E94C76E20E03D
:103EE00030E044E353E40E9489712BED3FE049E464
:103EF00050E40E94306F6B017C0120E030E0A901AA
:103F00000E94266F87FD03C3C0920E01D0920F015D
:103F1000E0921001F09211012091160130911701E9
:103F20004091180150911901609112017091130193
:103F300080911401909115010E9489716B017C019F
:103F400020911A0130911B0140911C0150911D01DB
:103F500060910E0170910F018091100190911101FB
:103F60000E9489719B01AC01C701B6010E942D6EB0
:103F700060930E0170930F018093100190931101D3
:103F800060931201709313018093140190931501B3
:103F90008DEE98E00E948F4CEE24E394F12C09E022
:103FA00010E020E830E041E050E061E070E08DEEAC
:103FB00098E00E94AA4061E08DEE98E00E94114ACC
:103FC000109200091092FF081092FE081092FD084E
:103FD00083E190E09093FA088093F90882E090E002
:103FE0009093FC088093FB086DE174E08DEE98E0FF
:103FF0000E94FA6B81E090E0909300098093FF08A3
:104000009093FE088093FD0862E08DEE98E00E9498
:10401000114AC0900E01D0900F01E0901001F09075
:10402000110120E030E0A901C701B6010E947C71B6
:104030001816B4F420E030E040E251E4C701B601C4
:104040000E94266F87FF0CC084E790E09093FA08E7
:104050008093F90887E290E09093FC088093FB0836
:1040600020E030E040E251E4C701B6010E947C71DB
:104070001816B4F420E030E048EC52E4C701B60171
:104080000E94266F87FF0CC088E690E09093FA08A4
:104090008093F90887E290E09093FC088093FB08F6
:1040A00020E030E048EC52E4C701B6010E947C7188
:1040B000181664F48CE590E09093FA088093F90860
:1040C00087E290E09093FC088093FB08C701B6015B
:1040D0000E94A26F4AE050E08DEE98E00E94C16C11
:1040E00060910E0170910F0180911001909111016A
:1040F0000E94B664FC0101900020E9F79F01225064
:1041000031092817390761F484E790E09093FA08A1
:104110008093F90884E190E09093FC088093FB0879
:1041200060910E0170910F01809110019091110129
:104130000E94B664FC0101900020E9F79F01235022
:1041400031092817390761F488E690E09093FA085E
:104150008093F90884E190E09093FC088093FB0839
:1041600060910E0170910F018091100190911101E9
:104170000E94B664FC0101900020E9F79F012450E1
:1041800031092817390761F48CE590E09093FA081B
:104190008093F90884E190E09093FC088093FB08F9
:1041A00060910E0170910F018091100190911101A9
:1041B0000E94B664BC018DEE98E00E941E6C61E026
:1041C0008DEE98E00E94114ACBE2D0E0D093FA083D
:1041D000C093F9088DE090E09093FC088093FB0871
:1041E0006EE48DEE98E00E94266CD093FA08C0939E
:1041F000F90886E390E09093FC088093FB0863E560
:104200008DEE98E00E94266C86E190E09093FA088B
:104210008093F908C2E2D0E0D093FC08C093FB0879
:1042200067E58DEE98E00E94266C80E490E0909324
:10423000FA088093F908D093FC08C093FB0865E462
:104240008DEE98E00E94266C21E030E045E250E0DF
:104250006DE270E08DEE98E00E94254A01E010E0EA
:104260002AE130E045E250E06DE270E08DEE98E04A
:104270000E941B4222E030E04FE050E065E070E039
:104280008DEE98E00E94444583E090E09093FA0818
:104290008093F90884E190E09093FC088093FB08F8
:1042A0006EE48DEE98E00E94266C20910E01309114
:1042B0000F01409110015091110160E070E084EB1A
:1042C00093E40E942C6E20E030E044EB52E40E9424
:1042D0002C6E2BED3FE049E450E40E94897120E010
:1042E00030E044E353E40E94306F6B017C010E9494
:1042F000F6714B015C01C701B6010E942B6F6B0187
:104300007C0120E030E040EA51E4C501B4010E94A4
:10431000897120E030E044E152E40E942D6E0E9459
:10432000A26F4B0120E030E040EA51E4C701B60142
:104330000E94897120E030E044E352E40E942D6E37
:104340000E94A26FEE24E394F12C84019B0145E2CC
:1043500050E06DE270E08DEE98E00E946C4120919B
:104360000E0130910F01409110015091110160E058
:1043700070E084EB93E40E942C6E20E030E044EB8C
:1043800052E40E942C6E2BED3FE049E450E40E9481
:10439000897120E030E044E353E40E94306F6B0108
:1043A0007C010E94F6712B013C01C701B6010E94FD
:1043B0002B6F4B015C0120E030E040EA51E4C30187
:1043C000B2010E94897120E030E044E152E40E9491
:1043D0002D6E0E94A26F6B0120E030E040EA51E4B4
:1043E000C501B4010E94897120E030E044E352E449
:1043F0000E942D6E0E94A26F01E010E022E030E0EA
:10440000A6018DEE98E00E94444520E030E044EBA8
:1044100052E460910E0170910F0180911001909112
:1044200011010E942C6E2BED3FE049E450E40E9404
:10443000897120E030E044E353E40E94306F6B0167
:104440007C010E94F6714B015C01C701B6010E941C
:104450002B6F6B017C0120E030E040EA51E4C501A4
:10446000B4010E94897120E030E044E152E40E94EE
:104470002D6E0E94A26F4B0120E030E040EA51E433
:10448000C701B6010E94897120E030E044E352E4A4
:104490000E942D6E0E94A26FEE24E394F12C840101
:1044A0009B0145E250E06DE270E08DEE98E00E94E5
:1044B0006C4160910E0170910F01809110019091FB
:1044C00011010E94A26F6115710549F06A357105ED
:1044D00031F0643B710519F06E30714049F560E0D0
:1044E00085E10E94676B8DEE98E0DF91CF911F917F
:1044F0000F91FF90EF90DF90CF90BF90AF909F9083
:104500008F907F906F905F904F900C94245020E09C
:1045100030E044EB53E4C701B6010E942D6E609376
:104520000E0170930F018093100190931101F4CC50
:1045300061E0D6CF6F927F928F929F92AF92BF929F
:10454000CF92DF92EF92FF920F931F93CF93DF935F
:1045500083EF97E00E94AB5F181619060CF03DC47C
:1045600083EF97E00E94155F682F82E198E00E9438
:1045700033688091CB07882309F42FC48EEA882EF4
:1045800086E0982EC5E2D0E097E0F92EEE24E39481
:10459000D40155961C92C4010E94537401973C01AA
:1045A000889770F5FE01E251FA4F1082CE018752D2
:1045B0009A4F0E945374F69C8001F79C100D1124B1
:1045C0000A581C4FF80192838183FE01E25CFA4F86
:1045D0001082CE01875D9A4F0E945374D8011496C1
:1045E0009C938E931397FE01E257FB4F1082CE01EE
:1045F00087589B4F0E945374F80196838583E0820D
:10460000FCE28F0E911CAC96C53DD10509F61092C7
:10461000CB0786EB97E00E945374EC0110929F0742
:104620008AE897E00E945374C817D90709F0D5C3E8
:10463000209102033091030306E7602E03E0702E01
:10464000F30190E080E001964081442349F0D901D4
:10465000AA0FBB1FAC5FBC4F8D939C932F5F3F4F46
:1046600037968832910579F72EE834E0D6E78D2E1B
:10467000D3E09D2E90E080E0D4014C91442359F08A
:10468000FC01EE0FFF1FE45EFC4F15964D915C910F
:10469000518340830196B7E08B0E911C2815390594
:1046A00059F71092030310920203EE24E394F12CC5
:1046B00009E010E020E830E050E040E070E060E029
:1046C0008DEE98E00E94AA4061E08DEE98E00E9495
:1046D000114A109200091092FF081092FE081092E1
:1046E000FD088DE090E09093FA088093F908C1E00E
:1046F000D0E0D093FC08C093FB086BEE71E08DEE28
:1047000098E00E941E6CD0930009C093FF08D093DC
:10471000FE08C093FD08C0E5D0E0D093FA08C0932E
:10472000F9088BE090E09093FC088093FB0860917F
:104730000403709105034AE050E08DEE98E00E947A
:10474000C16C6CE28DEE98E00E94266C60910603CD
:10475000709107034AE050E08DEE98E00E94C16C32
:104760006CE28DEE98E00E94266C609108037091D7
:1047700009034AE050E08DEE98E00E94C16CD093AE
:10478000FA08C093F90885E190E09093FC088093C3
:10479000FB0860910A0370910B034AE050E08DEE34
:1047A00098E00E94C16C6CE28DEE98E00E94266C4D
:1047B00060910C0370910D034AE050E08DEE98E09B
:1047C0000E94C16C6CE28DEE98E00E94266C6091B4
:1047D0000E0370910F034AE050E08DEE98E00E94C6
:1047E000C16CD093FA08C093F9088FE190E09093E0
:1047F000FC088093FB0860911003709111034AE05C
:1048000050E08DEE98E00E94C16C6CE28DEE98E075
:104810000E94266C60911203709113034AE050E0ED
:104820008DEE98E00E94C16C6CE28DEE98E00E94E3
:10483000266C60911403709115034AE050E08DEEF0
:1048400098E00E94C16CD093FA08C093F90889E2FD
:1048500090E09093FC088093FB08609116037091A0
:1048600017034AE050E08DEE98E00E94C16C6CE2C4
:104870008DEE98E00E94266C6091180370911903E8
:104880004AE050E08DEE98E00E94C16C6CE28DEE43
:1048900098E00E94266C60911A0370911B034AE015
:1048A00050E08DEE98E00E94C16C03E310E020E838
:1048B00030E043E350E06EE470E08DEE98E00E945B
:1048C0006C41D093FA08C093F90887E390E0909385
:1048D000FC088093FB086CE472E08DEE98E00E9487
:1048E000FA6B10927B08409180085091810860918A
:1048F0008208709183082AE030E08DEE98E00E94F3
:10490000C86CCAE0D0E011E02091470130E0AE0170
:1049100063E170E08DEE98E00E94254A80914701A6
:104920008127809347012196C034D10569F7CAE0F9
:10493000D0E011E02091470130E0AE0166E270E086
:104940008DEE98E00E94254A80914701812780934F
:1049500047012196C034D10569F7CAE0D0E011E0E3
:104960002091470130E0AE0169E370E08DEE98E000
:104970000E94254A80914701812780934701219613
:10498000C034D10569F7EE24E394F12C0FE310E075
:104990002DE430E04AE050E06DE470E08DEE98E008
:1049A0000E946C4160911C0370911D03072E000C46
:1049B000880B990B1F921F921F92CBE4CF93A12CCF
:1049C000B12C6501A39413E6E12EF12C00E010E078
:1049D00020E030E0A9010E94C86DEE24E394F12CA0
:1049E00003E010E09B014DE050E070E060E08DEEF0
:1049F00098E00E94AA4060911E0370911F03072E49
:104A0000000C880B990B1F921F921F92CF9313E6F5
:104A1000E12EF12C00E010E020E030E0A9010E943E
:104A2000C86DEE24E394F12C03E010E09B0141E11A
:104A300050E070E060E08DEE98E00E94AA40609146
:104A4000200370912103072E000C880B990B1F92F5
:104A50001F921F92CF9313E6E12EF12C00E010E09D
:104A600020E030E0A9010E94C86DEE24E394F12C0F
:104A700003E010E09B0145E150E070E060E08DEE66
:104A800098E00E94AA406091220370912303072EB0
:104A9000000C880B990B1F921F921F92CF9313E665
:104AA000E12EF12C00E010E020E030E0A9010E94AE
:104AB000C86DEE24E394F12C03E010E09B0149E182
:104AC00050E070E060E08DEE98E00E94AA406091B6
:104AD000240370912503072E000C880B990B1F925D
:104AE0001F921F92CF9313E6E12EF12C00E010E00D
:104AF00020E030E0A9010E94C86DEE24E394F12C7F
:104B000003E010E09B014DE150E070E060E08DEECD
:104B100098E00E94AA406091260370912703072E17
:104B2000000C880B990B1F921F921F92CF9313E6D4
:104B3000E12EF12C00E010E020E030E0A9010E941D
:104B4000C86DEE24E394F12C03E010E09B0141E2F8
:104B500050E070E060E08DEE98E00E94AA40609125
:104B6000280370912903072E000C880B990B1F92C4
:104B70001F921F92CF9313E6E12EF12C00E010E07C
:104B800020E030E0A9010E94C86DEE24E394F12CEE
:104B900003E010E09B0145E250E070E060E08DEE44
:104BA00098E00E94AA4060912A0370912B03072E7F
:104BB000000C880B990B1F921F921F92CF9313E644
:104BC000E12EF12C00E010E020E030E0A9010E948D
:104BD000C86DEDB7FEB7B0960FB6F894FEBF0FBE26
:104BE000EDBFEE24E394F12C03E010E09B0149E2D9
:104BF00050E070E060E08DEE98E00E94AA40609185
:104C00002C0370912D03072E000C880B990B1F921B
:104C10001F921F92CF9313E6E12EF12C00E010E0DB
:104C200020E030E0A9010E94C86DEE24E394F12C4D
:104C300003E010E09B014DE250E070E060E08DEE9B
:104C400098E00E94AA4060912E0370912F03072ED6
:104C5000000C880B990B1F921F921F92CF9313E6A3
:104C6000E12EF12C00E010E020E030E0A9010E94EC
:104C7000C86DEE24E394F12C03E010E09B0141E3C6
:104C800050E070E060E08DEE98E00E94AA406091F4
:104C9000300370913103072E000C880B990B1F9283
:104CA0001F921F92CF9313E6E12EF12C00E010E04B
:104CB00020E030E0A9010E94C86DEE24E394F12CBD
:104CC00003E010E09B0145E350E070E060E08DEE12
:104CD00098E00E94AA406091320370913303072E3E
:104CE000000C880B990B1F921F921F92CF9313E613
:104CF000E12EF12C00E010E020E030E0A9010E945C
:104D0000C86DEE24E394F12C03E010E09B0149E32D
:104D100050E070E060E08DEE98E00E94AA402DB770
:104D20003EB7205F3F4F0FB6F8943EBF0FBE2DBF7A
:104D3000D3011C92B7E06B0E711C68147904C1F7A3
:104D400010927B088091800890918108A091820840
:104D5000B0918308892B8A2B8B2B49F5109200097F
:104D60001092FF081092FE081092FD08EE24E394C2
:104D7000F12C09E010E029E430E04FE150E062E07E
:104D800070E08DEE98E00E94AA4083E090E090935E
:104D9000FA088093F90880E290E09093FC088093F1
:104DA000FB086FE372E08DEE98E00E94FA6B8DEEE7
:104DB00098E00E9424508DEE98E0DF91CF911F91F2
:104DC0000F91FF90EF90DF90CF90BF90AF909F90AA
:104DD0008F907F906F900C948F4CDF91CF911F91AB
:104DE0000F91FF90EF90DF90CF90BF90AF909F908A
:104DF0008F907F906F900895CF92DF92EF92FF9205
:104E00000E94576A6B017C0183EF97E00E94AB5FC1
:104E1000892B51F083EF97E00E94155F682F82E1A4
:104E200098E00E943368F0CF0E94576A6C197D09A0
:104E30008E099F09683E73408105910528F3FF9014
:104E4000EF90DF90CF9008958F929F92AF92BF9294
:104E5000CF92DF92EF92FF920F931F93CF93DF9346
:104E600080917201882309F458C1ADE1CA2ED12C7A
:104E7000B8E3AB2EB12C8DEE98E00E948F4C61E030
:104E80008DEE98E00E94114A109200091092FF08DE
:104E90001092FE081092FD08EE24E394F12C09E034
:104EA00010E020E830E050E040E070E060E08DEE9F
:104EB00098E00E94AA40C1E0D0E0D093FA08C093E5
:104EC000F908D093FC08C093FB086AE771E08DEE07
:104ED00098E00E94FA6BD0930009C093FF08D0932A
:104EE000FE08C093FD08D093FA08C093F908D09249
:104EF000FC08C092FB086FE671E08DEE98E00E941E
:104F0000FA6B60917001709171014AE050E08DEE92
:104F100098E00E94C16CD093FA08C093F908B0924F
:104F2000FC08A092FB086BE571E08DEE98E00E9412
:104F3000FA6B8DEE98E00E94245080917001909160
:104F40007101069724F0109271011092700180E0B7
:104F50000E94956B892B31F50E94576A0091FE02E1
:104F60001091FF022091000330910103601B710B2F
:104F7000820B930B693C71058105910548F0809186
:104F8000700190917101019690937101809370016D
:104F90000E94576A6093FE027093FF0280930003A1
:104FA0009093010381E00E94956B892B09F063CFF8
:104FB0000E94576A0091FE021091FF0220910003A7
:104FC00030910103601B710B820B930B693C7105DF
:104FD0008105910508F44FCF0E94576A6093FE0245
:104FE0007093FF028093000390930103E09170019E
:104FF000F0917101EE0FFF1FEC59FE4F80819181FE
:105000000E942F1260937B0170937C0180937D013D
:1050100090937E01E0917001F0917101EE0FFF1FFE
:10502000EC59FE4F8081918106960E942F12609369
:105030007F017093800180938101909382018DEEB6
:1050400098E00E948F4CEE24E394F12C09E010E0EC
:1050500020E830E050E040E070E060E08DEE98E065
:105060000E94AA40109200091092FF081092FE08B8
:105070001092FD08C1E0D0E0D093FA08C093F9087F
:10508000D093FC08C093FB0867E471E08DEE98E0D4
:105090000E94FA6B60917001709171014AE050E0DA
:1050A0008DEE98E00E94C16CD0930009C093FF0878
:1050B000D093FE08C093FD08D093FA08C093F90876
:1050C0008DE190E09093FC088093FB0840917B0178
:1050D00050917C0160917D0170917E0126E030E06D
:1050E0008DEE98E00E94C66D6CE28DEE98E00E9415
:1050F000266C40917F0150918001609181017091F7
:10510000820126E030E08DEE98E00E94C66D8DEEC3
:1051100098E00E942450109272010E94FC2681E0C7
:105120000E94956B892BE1F50E94576A0091FA0263
:105130001091FB022091FC023091FD02601B710B6B
:10514000820B930B693C710581059105F8F02DECFC
:105150003CEC4CEC5DE36091930170919401809183
:105160009501909196010E948971609393017093CB
:1051700094018093950190939601809162019091A2
:105180006301019690936301809362010E94576AC4
:105190006093FA027093FB028093FC029093FD02ED
:1051A00080E00E94956B892BB9F50E94576A0091A7
:1051B000F6021091F7022091F8023091F902601B7B
:1051C000710B820B930B693C710581059105D0F041
:1051D00020E030E040E85FE360919301709194013A
:1051E00080919501909196010E942D6E609393019C
:1051F00070939401809395019093960110926301AE
:10520000109262010E94576A6093F6027093F7024F
:105210008093F8029093F90280916201909163016A
:105220000B9724F0109263011092620120E030E0AD
:1052300040E251E460919301709194018091950155
:10524000909196010E947C71181664F480E090E0C1
:10525000A0E2B1E48093930190939401A09395010F
:10526000B09396012FEF36EE4BED5EE26091930125
:105270007091940180919501909196010E94266F02
:1052800087FF0CC08FEF96EEABEDBEE280939301EB
:1052900090939401A0939501B093960110927B088E
:1052A0008091800890918108A0918208B091830834
:1052B000892B8A2B8B2B49F5EE24E394F12C09E002
:1052C00010E02BE230E04CE150E06AE270E08DEE5D
:1052D00098E00E94AA40109200091092FF081092D4
:1052E000FE081092FD088BE290E09093FA088093FC
:1052F000F9088DE190E09093FC088093FB086FE340
:1053000071E08DEE98E00E94FA6B82E198E00E94D5
:10531000F26460938301709384018093850190937C
:10532000860182E198E00E941E655B016C01A092FB
:105330008701B0928801C0928901D0928A01E090E1
:105340008301F090840100918501109186012091E4
:105350007F013091800140918101509182016091E3
:105360007B0170917C0180917D0190917E010E9472
:10537000FE6260938B0170938C0180938D019093FA
:105380008E01A0908701B0908801C0908901D090D3
:105390008A01E0908301F0908401009185011091D1
:1053A000860120917F0130918001409181015091CF
:1053B000820160917B0170917C0180917D019091CF
:1053C0007E010E94EE634B015C01209193013091BC
:1053D0009401409195015091960160918B017091DB
:1053E0008C0180918D0190918E010E9489716B01D9
:1053F0007C01C0928B01D0928C01E0928D01F092E1
:105400008E0120E030E044EB52E4C501B4010E947B
:105410002C6E60938F017093900180939101909313
:1054200092012BED3FE049E450E40E94897120E0B5
:1054300030E044E353E40E94306F4B015C010E9472
:105440002B6F9B01AC01C701B6010E94897120E05E
:1054500030E040E852E40E942D6E0E94A26F6093FB
:105460007301709374018093750190937601C50167
:10547000B4010E94F6719B01AC01C701B6010E9404
:10548000897120E030E040E052E40E942D6E0E94DD
:10549000A26F609377017093780180937901909364
:1054A0007A018DEE98E00E948F4C61E08DEE98E0DD
:1054B0000E94114A81E090E0909300098093FF08D8
:1054C0009093FE088093FD089093FA088093F90862
:1054D0009093FC088093FB0868E78DEE98E00E94AB
:1054E000266CC0909301D0909401E0909501F090CB
:1054F000960120E030E040E85FE3C701B6010E947A
:10550000266F209162013091630187FD02C022E085
:1055100030E0B701A6018DEE98E00E94C66D82E6EC
:1055200090E09093FA088093F90881E090E09093DE
:10553000FC088093FB0882E498E00E94CF65C82FA6
:1055400082E198E00E941E650E941C13BC016C0F52
:10555000711D4AE050E08DEE98E00E94C16C6AE354
:105560008DEE98E00E94266C82E498E00E94DD6552
:105570008A3030F46DE371E08DEE98E00E94FA6BB2
:1055800082E498E00E94DD654AE050E0682F8DEEED
:1055900098E00E94D56C81E090E09093FA088093A7
:1055A000F90888E390E09093FC088093FB08409111
:1055B0008B0150918C0160918D0170918E0122E0E0
:1055C00030E08DEE98E00E94C66D6AE371E08DEEEA
:1055D00098E00E94FA6B20918F01309190014091E8
:1055E00091015091920160E070E084EB93E40E949D
:1055F0002C6E20E030E044EB52E40E942C6EAB01B4
:10560000BC0122E030E08DEE98E00E94C66D66E3BA
:1056100071E08DEE98E00E94FA6BCC24C394D12CFB
:105620009AE0E92EF12C0AE010E025E736E14BE1A3
:1056300050E06BE370E08DEE98E00E947746409179
:105640007701509178014B5051096091730170912D
:1056500074016250710921E636E18DEE98E00E94F6
:105660007746009177011091780120917301309174
:105670007401EE24E394F12C40E250E060E470E029
:105680008DEE98E00E946C418DEE98E0DF91CF9115
:105690001F910F91FF90EF90DF90CF90BF90AF9050
:1056A0009F908F900C942450CF92DF92EF92FF92B4
:1056B0000F931F93CF93DF9380917201882309F496
:1056C00090C08DEE98E00E948F4CC1E0D0E0D09366
:1056D000FA08C093F908D093FC08C093FB0861E076
:1056E0008DEE98E00E94114AD0930009C093FF0804
:1056F000D093FE08C093FD0862EB72E08DEE98E057
:105700000E94FA6B8DEE98E00E9424508AE090E0AF
:105710009093070180930601109239031092380389
:1057200006E010E0C0913803D09139038091060162
:10573000909107010E942F12CC0FDD1FCC0FDD1FAF
:10574000CE5ADC4F688379838A839B8380910601DC
:1057500090910701069690930701809306016AE0F5
:1057600070E080E090E00E94886AC0913803D09198
:10577000390380910601909107010E942F12CC0FEE
:10578000DD1FCC0FDD1FC65CDC4F688379838A8305
:105790009B838091060190910701069690930701E3
:1057A000809306016AE070E080E090E00E94886AE1
:1057B0008091380390913903019690933903809337
:1057C00038030150110909F0ADCF109272018AE03F
:1057D00090E0909307018093060110923903109294
:1057E00038038DEE98E00E948F4C61E08DEE98E0DA
:1057F0000E94114AC1E0D0E0D0930009C093FF0895
:10580000D093FE08C093FD08D093FA08C093F9081E
:10581000D093FC08C093FB0840915203509153036E
:10582000609154037091550326E030E08DEE98E0CE
:105830000E94C66D6CE28DEE98E00E94266C40914D
:105840003A0350913B0360913C0370913D0326E085
:1058500030E08DEE98E00E94C66DD093FA08C093B8
:10586000F9088BE090E09093FC088093FB0840914E
:10587000560350915703609158037091590326E0E5
:1058800030E08DEE98E00E94C66D6CE28DEE98E0FF
:105890000E94266C40913E0350913F03609140036B
:1058A0007091410326E030E08DEE98E00E94C66DD5
:1058B000D093FA08C093F90885E190E09093FC0832
:1058C0008093FB0840915A0350915B0360915C0305
:1058D00070915D0326E030E08DEE98E00E94C66D89
:1058E0006CE28DEE98E00E94266C4091420350914C
:1058F0004303609144037091450326E030E08DEE50
:1059000098E00E94C66DD093FA08C093F9088FE121
:1059100090E09093FC088093FB0840915E035091C7
:105920005F03609160037091610326E030E08DEECB
:1059300098E00E94C66D6CE28DEE98E00E94266CA5
:105940004091460350914703609148037091490389
:1059500026E030E08DEE98E00E94C66DD093FA0804
:10596000C093F90889E290E09093FC088093FB08CB
:1059700040916203509163036091640370916503E9
:1059800026E030E08DEE98E00E94C66D6CE28DEE70
:1059900098E00E94266C40914A0350914B0360911D
:1059A0004C0370914D0326E030E08DEE98E00E94AC
:1059B000C66DD093FA08C093F90883E390E0909302
:1059C000FC088093FB084091660350916703609147
:1059D00068037091690326E030E08DEE98E00E9444
:1059E000C66D6CE28DEE98E00E94266C40914E03ED
:1059F00050914F03609150037091510326E030E0C5
:105A00008DEE98E00E94C66D8DEE98E00E942450C5
:105A10008091380390913903069724F0109239034E
:105A20001092380380910601909107018D34910501
:105A300034F08AE090E0909307018093060180E0C3
:105A40000E94956B892B09F0A8C061E08DEE98E06B
:105A50000E94114AC1E0D0E0D0930009C093FF0832
:105A6000D093FE08C093FD080E94576A009134034A
:105A7000109135032091360330913703601B710B71
:105A8000820B930B693C71058105910508F47BC07D
:105A9000C0903803D090390382E0C816D10409F4CD
:105AA00020C10CF0B5C0C114D10409F4D8C081E004
:105AB000C816D10409F4FAC08DEE98E00E94245073
:105AC000C0913803D091390382E198E00E94F264DA
:105AD000CC0FDD1FCC0FDD1FCE5ADC4F68837983DE
