:020000040000FA
:100000000C946A100C94C66B0C94F16B0C941C6CE1
:100010000C943D620C943D620C943D620C943D62E4
:100020000C9494100C9494100C9494100C949410C0
:100030000C9494100C9494100C9494100C949410B0
:100040000C9494100C9494100C94486C0C94941090
:100050000C9494100C9494100C9494100C94941090
:100060000C9494100C9494100C9404560C949410CA
:100070000C9494100C9494100C9494100C94941070
:100080000C9494100C9494100C949410036EDB3622
:100090003D9A9999993DABAAAA2A3E000000803F5B
:1000A000084AD73B3BCE016E84BCBFFDC12F3D6CDF
:1000B00074319ABD56833DDA3D00C77F11BED9E445
:1000C000BB4C3E916BAAAABE000000803F072C7A71
:1000D000A5BA6CC590DA3B9365FC8BBC53F810FD58
:1000E0003C5692834DBD879D3AB63DCBC9BF5BBEA2
:1000F00073DA0FC93F05A84CCDB2D44EB93836A932
:10010000020C50B9918688083CA6AAAA2ABE000013
:1001100000803F0664EC1B3C04BC163E3BE5B93C4A
:10012000C93C37C29E5A3D660498083EEA69AAAAAD
:100130003E000000803F444547006D200030004EE7
:100140004F20444154410053454C454354454420BD
:10015000574159504F494E543A200050524553533D
:100160002028422920544F2053454C4543540057E2
:100170004159504F494E543A200053454C45435441
:1001800020574159504F494E5400534154454C4C0F
:1001900049544520545241434B4552004445564929
:1001A0004154494F4E204D415000475053204E413D
:1001B0005649474154494F4E0048415244574152D5
:1001C0004520494E464F00414C54494D45544552F7
:1001D000004449474954414C20434F4D50415353EB
:1001E00000475053204E415649474154494F4E0015
:1001F000474D540055544300454550524F4D2052F1
:1002000045434F5645525920444154410064656767
:1002100000444953542E2046524F4D2053544152CE
:100220005420504E5400535441525420504F494E84
:10023000540044415441204C4F4747494E470041E8
:100240004351554952494E472E2E2E005341543AA0
:10025000200045524153494E4720454550524F4D8D
:100260002E2E2E0057524954494E472E2E2E202016
:100270000057524954494E472E2E2E2020005752E7
:100280004954494E472E2E2E20200057524954499A
:100290004E472E2E2E20200057524954494E472EAD
:1002A0002E2E20200057524954494E472E2E2E20E4
:1002B00020004445434F44494E4720454550524F46
:1002C0004D2E2E2E0031352E303332303232005644
:1002D000455253494F4E00312E3730250045455089
:1002E000524F4D003135250052414D003437250025
:1002F000464C4153480053554E5345540053554EB8
:10030000524953450047505320535441525455507D
:100310003A200048444F502056414C55453A200061
:100320006D730055504420494E54455256414C3A45
:100330002000434F4E4E454354494F4E20494E46B0
:100340004F00524543455054494F4E205349474E64
:10035000414C0048444F50200064656700534154AD
:10036000454C4C49544500204B6D2F680053504577
:10037000454400206D00414C544954554445004CBF
:100380004F4E47495455444520004C41544954551B
:10039000444500414351554952494E472053415429
:1003A000454C4C4954455300414351554952494EDF
:1003B0004720534154454C4C495445530041524504
:1003C00020594F5520494E444F4F523F004152450E
:1003D00020594F5520494E444F4F523F002055540D
:1003E00043003000434845434B2054484520414E8C
:1003F00054454E4E4100544F4F204C4F4E470053F2
:1004000049474E414C20524543455054494F4E2098
:10041000544F4F4B004E4F204441544100444947F4
:100420004954414C20434F4D50415353006D616B33
:10043000652E62656C6965766500424F5241204EBB
:10044000590050524F4752414D4D454420425900AA
:100450004E4F20444154412E2E2E00414C544954BD
:10046000554445204752415048005B4641494C4560
:10047000445D204448543131005B20204F4B202004
:100480005D204C534D333033444C4843005B2020B7
:100490004F4B20205D204E454F2D364D005B2020D8
:1004A0004F4B20205D204750494F005B20204F4B91
:1004B00020205D20535344313330360000000000CB
:1004C00000000000001FFF0000000000FFFFE00030
:1004D000000FFFFFFFFFFE000FFFF001FFFF001CFA
:1004E000FF81F83FE700187E09FA0FC300187C214E
:1004F000F803C3001CF080F091E7001FE69060A4B1
:10050000FF001FC24000287F001F890000193F0024
:100510001F050000125F001F300000008F001E88C2
:1005200000000107001C4000000167001C201800AB
:1005300006838039801C000C338038400E0038431D
:10054000C03B000600701DC078C00700C071C070BD
:100550000003038001C0738001870019E07000016F
:10056000CC0000E0778000F8001CE0700000F00094
:1005700000E0700001F00000E0740007F80004E003
:1005800070000F3C0001E07380073E001DC070004A
:10059000003C0001C079C000380079C03A0000007A
:1005A0000009C0384000000063C03D000000001397
:1005B000801C2000000087801EC000000027001E55
:1005C000100000010F001F200000048F001F050015
:1005D00000121F001F890000093F001FC240002CAD
:1005E0007F001FE49040A4FF001CF8A54291E700A3
:1005F000187C214203C300187F094A0FC3001CFF67
:10060000C0483FE7000FFFF803FFFF0007FFFFFFB1
:10061000FFFE0000007FFFE0000000000FFE000072
:1006200000000000000000000000000000000000CA
:100630000001100000000000019000000000000117
:100640005000000000000130000000000001100018
:10065000000000000000000000000000600000003A
:100660000000006000000000000F6F0000000000AC
:100670003F6FC000000000F801F000000001E00042
:10068000780000000380001C0000000703FC0E003F
:1006900000000E0FFF070000001C3FFF83800000DA
:1006A000187FFFE180000038FFFFE1C0000030FF4D
:1006B000FEF0C0000071FFF878E0000061FFE0F894
:1006C00060000063FF80F860008863FE01FC63E067
:1006D000A803F001FC0200ABE3C003FC7BC0ABE36A
:1006E0008003FC7A0050038007FC03E00063F007FE
:1006F000FC60000063FC0FF860000061FE0FF86012
:10070000000071FE1FF8E0000030FF1FF0C0000085
:10071000387F3FE1C00000187F3FC18000001C1FF0
:10072000FF838000000E0FFF070000000701F80E96
:100730000000000380001C00000001E000780000C1
:100740000000F801F0000000003F6FC00000000052
:100750000F6F00000000000060000000000000605B
:1007600000000000000000000000000000F0000099
:100770000000000100000000000000E00000000098
:10078000000010000000000001E000000000000078
:100790000000000004008A40514020C003C0010056
:1007A0000080FFC00080010003C020C051408A408B
:1007B000040087088F889FC8FFF89FC88F88870824
:1007C0000000000000000000000000100000000019
:1007D000000038000000000000FE000000000001E2
:1007E000C71B0000000001C3BF8000000000E3FF42
:1007F000C00000000077E6C0000000003FC3C0005A
:100800000000001B81C0000000000701C0000000C4
:1008100000060380000000000C0300000000000C34
:100820000F80000000000C1FC000000000063FE029
:100830000000000007F6700000000179CE300000D3
:100840000003780E180003F803F80738001FFF8133
:10085000D803F0007F7FC0E001E000F66EE0780092
:10086000C001C46678100000078C631E0000000FF2
:100870009861BE0000000FF861FE00000018FFFF45
:10088000E3000000183FFF8380000010306081808B
:10089000000030306081C00000306060C0C00000E7
:1008A000306060C0C00000606060C06000006060D8
:1008B00060C06000007FFFFFFFE000007FFFFFFFE0
:1008C000E00000606060C0600000606060C06000C8
:1008D00000606060C0600000306060C0C000003038
:1008E000306080C0000030306081C0000010306097
:1008F00081800000183FFF8380000018FFFFE300A5
:1009000000000FF861FE000000070C630E000000FD
:10091000038C631C00000001C4667800000000F630
:100920006EE0000000007FFFC00000000003F80040
:10093000000000000000000000007FFFFFFFFFFF3D
:10094000E0FFFFFFFFFFFFF0C01A2666458030C0C2
:100950001B66666D8030C01FFFFFFF8030C0000047
:1009600000000030C0000000000030C000000000A7
:100970000030C0000000000130C00000000003F0A3
:10098000C0000000000300F8003108C00300F800B8
:100990003108C00300C8003108C003F0F8000000AF
:1009A000000030D800FFFCF00030C801FFFC7800E8
:1009B00030D8018000180030F81DFF80198030C841
:1009C0001DFFC0198030C80180C0180030F80180B8
:1009D000C0180030F80180C0180030C81D80C21B4C
:1009E0008030C80180C2180030F80180C218003081
:1009F000F8018042180030C8018002180030C81D7C
:100A000080021B8030F80180C0180030F80180C0DF
:100A1000180030C80180C0180030C81DFFC0198000
:100A200030F81DFF80198030D8018000180030C8D0
:100A300001FFFFF80030D800FFFFF00030F80000A1
:100A400000000030C8000108003F30F8003108C045
:100A50003130F8003108C02130C0000000002130E2
:100A6000C0000000002130C0000000003F30C00086
:100A70000000003F30C0000000000030C000000057
:100A8000000030C01FFFFFFF8030C01B66666D8016
:100A900030C01A2666458030F8FFFFFFFFFFF0796F
:100AA000FFFFFFFFFFE0FFFFFFFFFFFC00FFFFFF77
:100AB000FFFFFC00FFFFFFFFFFFC00E00000E38002
:100AC0000C00E0000061800C00E0000061800C0080
:100AD000E03F0071800C00E07F8071C00C00E1FFFE
:100AE000E071C00C00E1807030C00C00E38C303845
:100AF000C00C00E73F3838E00C00E73F3838E00C26
:100B000000E6739FF87FFC00E6739800000C00E796
:100B10007F9800000C00E73F3800000C00E39E3097
:100B200000000C00E3807000000C00FFC0FF0FCC41
:100B3000FC00FFE0FF0FCCFC00FFE1FF1F007C008A
:100B4000E0738718000C00E03F0E38000C00E01E38
:100B50001C703FCC00E00C1CE0FFFC00E00438E31C
:100B6000E0FC00E00039C7801E00E00031C7000F44
:100B700000FFC4719C0007C0FFC463380001C0E0DF
:100B800000E3380000C0E000E770000040E001C76B
:100B900060000060E003CEE7CF0F60E0039CC7CFAA
:100BA0009F70E0071CCC0D9870E00738CC0F987050
:100BB000FFFFFFCCEF9F70FFFFFFCFEF01F00000C2
:100BC00000E7EC1F70000000E78C1E600000006072
:100BD000000060000000700000600000007800006D
:100BE000C00000001C0001C00000001C00038000C9
:100BF00000000E00070000000007000E00000000CB
:100C000007FFFC00000000007FF000000000001F54
:100C1000800000002273CF8F2200000000368A2857
:100C200008A2000000002AFA2F0F14000000002282
:100C30008A28088800000000228BCF8F080000005F
:100C400000000000000000000000000000000000A4
:100C50000000000000000000000000000000000094
:100C60000000000000000000000000000000000084
:100C700000000000000007F81F87F81F8000000731
:100C8000F81F87F81F800000060660660660600097
:100C90000006066066066060000007F86067F87F7F
:100CA000E0000007F86067F87FE000000606606675
:100CB000186060000006066066186060000007F8B3
:100CC0001F86066060000007F81F8606606000004F
:100CD00000000000000000000000000024000000F0
:100CE00000000000002C00000000000000FFFFFFDB
:100CF000800000000000802C0080000000000080C8
:100D0000240080000000000080000080000000003F
:100D1000008000008000000000E080000083800070
:100D20000000FFF80FFFFF80000000E00808080344
:100D30008000000000080808000000000000083ED5
:100D400008000000000000081C080000000000006F
:100D50000808080000000000003E3E3E00000000C1
:100D60000000000000000000000000FFFFFF800006
:100D700000000000000000800000000000000000F3
:100D80008000000000000000008000000000000063
:100D90000000800000000000000000800000000053
:100DA00000000001C00000000000000001C00000C1
:100DB000000000000001C000000000000000000072
:100DC00000000000000000000000000000F3E7BE8B
:100DD000F9C8000000008888082228000000008868
:100DE000898823E800000000888888222800000005
:100DF00000F3E73E222F800000000000000000000A
:100E000000FA28A2F3EF1EF9CF222228B28A08A006
:100E10002228B623E8AA8BCF1C222F2A2228A68AB2
:100E20000902222922222722F3E8BC21C8A200FCC1
:100E3000000000000001FF800000000007FFE0004C
:100E40000000001F01F00000000018003800000042
:100E50000030001800000000307C1C000000007012
:100E6000FE0C00000000E1FF0E00000000E3C7865A
:100E700000000000E3838600000000E3838600009A
:100E80000000E3838600000000E3C7860000000046
:100E900061FF0E0000000070FE0E00000000707C7C
:100EA0001C0000000030001C000000003000180092
:100EB00001FE001C0038001FFF801C0070001C0396
:100EC000E00E0070003800F00E00E00070007007C7
:100ED00000C000F000300383C001E0F818018380F7
:100EE00001C1FC180187000183FE1C00C6000187B8
:100EF0008F1C00EE000187071C00FC000187071C07
:100F0000007C000187071C007E0001878F1C00FF0A
:100F10000001C3FE1800E7FF81C1FC1800E7FFC015
:100F2000E0F81800FFFFF0F0007000FF00703000E4
:100F300070007E00303000E0001800301800E00043
:100F40000000301C01C0000000F01E038000FFFF05
:100F5000F006030001FFFFC007060003FFFF0003C8
:100F6000860007800000038E000700000001DC00FF
:100F70000600000000FC000600000001F800070069
:100F8000000003FC0003800000039C0003FFFCCF73
:100F9000FF9C0000FFFCCFFFFC000000000001F8F8
:100FA000000000000000F000000000000000000051
:100FB0000000300000000000007800000000000089
:100FC000CC000040000001C60000E0000003E30088
:100FD0000DC000000637801F80000F071EC7F700F6
:100FE000003F039C6EF380007001FE38318000E307
:100FF00000F3301F0000CF0071E18E00019C00392A
:10100000C3C6000199801D86E60001B3C00F0C62C3
:101010000001B6600618C6000006600C31860000AC
:1010200003C00C630C00000180077618000000006C
:101030000F3C3C000000007D98660000000070C07E
:10104000E3000000003871F1800000001C331BC079
:101050000000000E7F8F60000000076DCE300000A2
:101060000003C0FF180000E001C079980001F00003
:10107000C038F001FF9000001CE01FFFF000000EE0
:10108000C03F71E000000780373B40000003006371
:101090009EC00000000061CEC00000000060E7C0FC
:1010A000000600006073C0000F00006039C0001926
:1010B0008000601CE00019B600600EC0000F360012
:1010C000200780000666003003800000E60018015B
:1010D000C00003CC001C01C000031C001F870000DF
:1010E00000380013FE000003F0001060000003C091
:1010F00000106000000000001FE000000000001F62
:10110000F80000000000101E00000000001FFF009B
:10111000000000003FFF0000000000000000000091
:10112000000000000020000000000000200000007F
:10113000000003FF00000000003C20E00000000071
:10114000C02018000000030020060000000400205A
:101150000100000078002000C00000F800200020FE
:101160000000F8002000100000F800200008000136
:10117000700020000400010001FC00040002000EC9
:1011800023B80200040010207C0100040060207CD1
:101190000100080080207C0080080100203C0080C5
:1011A00010010E2004008010021F200200401004D5
:1011B0001F2001004010041FF801004020040F24EC
:1011C0000100202008022200802020080421008045
:1011D0002020080421008020FFFFFFFFFFFFF020F8
:1011E000080421008020200804210080202008021B
:1011F0002270802020040124F90020200400F8F946
:10120000004010040020F90040100200207200404D
:101210001002002004004008017020040080080033
:10122000F8200800800400F8203001000400F820B5
:1012300040010002007E23800200010001FC000446
:1012400000010000200004000080002000080000D1
:1012500040002000100000200020002000001800A6
:101260002000C00000040020010000000300200650
:1012700000000000E02018000000001C21E0000039
:10128000000003FE0000000000002000000000003D
:101290000000000000000200000100000007000044
:1012A000038000000F800007C00000198000066066
:1012B00000003B8000073000001F000003F000002A
:1012C000FE000001FC0001FC000000FE00013800EF
:1012D0000000320001F00000003E000FFF0000039C
:1012E000FFC01FDE000001EFE0331CA0000AE33066
:1012F000771AA0000963907E1120000A21D03C06D5
:1013000041F809C0F018008606040060000F0801CB
:1013100003C000000014CC80000000002FFF40003C
:101320000000005FFF60000000005FFF6000000041
:10133000009FFE500000000083D950000000008F85
:10134000C310000000009FE210000000009FE79023
:10135000000000008FF0D00000000043F0200000EB
:10136000000041E3A00000000021C7C00000000011
:1013700010C7800000000008C53E000000000606FF
:10138000400300000001F88C078000000000910F6E
:10139000C000000000AB1DC000000000A7198000C5
:1013A0000000008F7F00000000001FFE0000000012
:1013B0000001F000000000000390000000000007A2
:1013C000F000000000000FE000000000001F00001F
:1013D000000000003B80000000000033000000001F
:1013E00000003E0000000000001C000000000000A3
:1013F000080000000000000000000200404210E071
:10140000202150070040088040104040D058001074
:1014100040400880400700402021504210E0020078
:101420004000000000FE0001010002008002388040
:10143000024480024480024480023880020080021C
:10144000008001010000820000440000280000101C
:10145000000000000000000E78F01045001378E056
:101460001140100E41E000000000000000000000EC
:101470000000183E0C18410C18808C18808C1F80BE
:10148000FC18808C18808C18410C183E0C00000051
:101490000000000000000000000000000000000745
:1014A0009CF8082220073E2000A2200F22200000E6
:1014B0000000000000000001FF800200C0047E2048
:1014C0000481200503A00507A0050FA00507A005BE
:1014D00003A0048120047E200200C001FF800000E0
:1014E0000000000000000079F45F25044425E44476
:1014F00025028479F11F00000000000000000000B8
:101500000000000800001C00003E00003E00003EFD
:10151000000000002022022032022AAAAA2026026D
:101520002022020000000000000000000000000077
:1015300000003CE45E4116D141155E4114503CE48C
:10154000500000000000000000000000000040000B
:1015500000E10001F38003FFC0055D600804101086
:101560000208200104400082FFFFFF00000000008D
:1015700000000000000000000000720FBE8A020898
:10158000FA02088A02088BE23E015500015500006C
:10159000000003FF801A00B00280801A00B0020031
:1015A000801A00B00200801A00B00200801A00B059
:1015B00003FF8000000001550001550000000000FD
:1015C00000000F44F01045000E28E00110101E111D
:1015D000E00000000FFC0008060008050008048079
:1015E0000804400804200807F009F0100910100949
:1015F000101009F01009001009001009001008006F
:10160000100FFFF00000001038E0104500104530CA
:101610001045101F38E000000000000000003E00F0
:10162000002200552200003E0100200000200100A1
:10163000000000000055403E00003E00103E00004B
:101640003E00102000002155400000000000004432
:10165000E45F65144455F4444D128445111F0000A5
:10166000003FC03FC03FC03FC03FC03FC020002040
:1016700000200020000C000C0033002100CCC0CC66
:10168000C0210033000C000C0000000000003E5B95
:101690004F5B3E3E6B4F6B3E1C3E7C3E1C183C7EBF
:1016A0003C181C577D571C1C5E7F5E1C00183C18A4
:1016B00000FFE7C3E7FF0018241800FFE7DBE7FFA0
:1016C00030483A060E2629792926407F050507402D
:1016D0007F05253F5A3CE73C5A7F3E1C1C08081CEE
:1016E0001C3E7F14227F22145F5F005F5F06097F2C
:1016F000017F006689956A606060606094A2FFA2C5
:101700009408047E040810207E201008082A1C0873
:10171000081C2A08081E101010100C1E0C1E0C307D
:10172000383E3830060E3E0E060000000000000075
:101730005F00000007000700147F147F14242A7F35
:101740002A12231308646236495620500008070302
:1017500000001C2241000041221C002A1C7F1C2A80
:1017600008083E08080080703000080808080800D3
:101770000060600020100804023E5149453E0042CE
:101780007F400072494949462141494D331814129E
:101790007F1027454545393C4A49493141211109C6
:1017A000073649494936464949291E0000140000B8
:1017B00000403400000008142241141414141400D2
:1017C0004122140802015909063E415D594E7C121E
:1017D00011127C7F494949363E414141227F4141B6
:1017E000413E7F494949417F090909013E41415133
:1017F000737F0808087F00417F41002040413F017E
:101800007F081422417F404040407F021C027F7FBE
:101810000408107F3E4141413E7F090909063E41CF
:1018200051215E7F09192946264949493203017F22
:1018300001033F4040403F1F2040201F3F403840B1
:101840003F631408146303047804036159494D434A
:10185000007F4141410204081020004141417F04C2
:1018600002010204404040404000030708002054A9
:101870005478407F28444438384444442838444409
:10188000287F385454541800087E090218A4A49CD8
:10189000787F0804047800447D40002040403D00EB
:1018A0007F1028440000417F40007C047804787C4D
:1018B000080404783844444438FC182424181824B4
:1018C0002418FC7C08040408485454542404043F9D
:1018D00044243C4040207C1C2040201C3C403040A4
:1018E0003C44281028444C9090907C4464544C44D0
:1018F0000008364100000077000000413608000271
:10190000010204023C2623263C1EA1A161123A409A
:1019100040207A3854545559215555794122545410
:101920007842215554784020545579400C1E52720B
:1019300012395555555939545454593955545458E8
:101940000000457C410002457D420001457C407D10
:101950001211127DF0282528F07C545545002054A2
:10196000547C547C0A097F4932494949323A4444FB
:10197000443A324A4848303A4141217A3A4240207A
:1019800078009DA0A07D3D4242423D3D4040403D0B
:101990003C24FF2424487E4943662B2FFC2F2BFF39
:1019A0000929F620C0887E0903205454794100009B
:1019B000447D413048484A32384040227A007A0A11
:1019C0000A727D0D19317D2629292F2826292929DA
:1019D0002630484D4020380808080808080808380C
:1019E0002F10C8ACBA2F102834FA00007B00000872
:1019F000142A142222142A14085500550055AA55F9
:101A0000AA55AAFF55FF55FF000000FF0010101057
:101A1000FF00141414FF001010FF00FF1010F0104E
:101A2000F0141414FC001414F700FF0000FF00FF72
:101A30001414F404FC141417101F10101F101F149A
:101A400014141F00101010F0000000001F101010E0
:101A5000101F10101010F010000000FF10101010D8
:101A60001010101010FF10000000FF140000FF0005
:101A7000FF00001F10170000FC04F41414171017C7
:101A80001414F404F40000FF00F7141414141414D4
:101A900014F700F7141414171410101F101F141447
:101AA00014F4141010F010F000001F101F000000BC
:101AB0001F14000000FC140000F010F01010FF10C4
:101AC000FF141414FF141010101F00000000F01079
:101AD000FFFFFFFFFFF0F0F0F0F0FFFFFF0000005E
:101AE0000000FFFF0F0F0F0F0F3844443844FC4A2B
:101AF0004A4A347E02020606027E027E026355498D
:101B000041633844443C04407E201E2006027E028D
:101B10000299A5E7A5991C2A492A1C4C7201724C0E
:101B2000304A4D4D303048784830BC625A463D3ED0
:101B3000494949007E0101017E2A2A2A2A2A444471
:101B40005F444440514A444040444A51400000FFF1
:101B50000103E080FF000008086B6B083612362492
:101B600036060F090F0600001818000000101000BC
:101B70003040FF0101001F01011E00191D17120056
:101B80003C3C3C3C00000000002200FF2100000122
:101B900003070F1F3F7F0080C0E0F0F8FCFEDB4032
:101BA000A4A62EAF2000A1C8D300408DAED580A83A
:101BB00000006000000000000000000000000000C5
:101BC00000E0000000000000000000000000000134
:101BD000E00000000000000000000000000001F034
:101BE0000000000000000000000000000003F00002
:101BF00000000000000000000000000007F00000EE
:101C0000000000000000000000000007F8000000D5
:101C1000000000000000000000000FF800000003BA
:101C2000C0007E000001E0007F0FF800000003C04C
:101C300000FE000001E000FFEFF800000003C0001C
:101C4000FE000001E000FFFFF800000003C000F00C
:101C50000000000F007FFE7FC0000003C000F00006
:101C600000000F003FFE7FF83FF1FBCFFCFEF3BC0E
:101C70003DEFE01FFE7FFF7FFBFFDFFEFEFFBC3D71
:101C8000EFE01FC6FFFF7FFBFFDFFEFEFFBC3DEF67
:101C9000E00FE3C7FE787BC3DE1EF0FFBC3DEF0024
:101CA00007FF87FC787BC3DE1EF0F83C3DEF0001A8
:101CB000FFFFF0007BC3C01EF0F03C3DEF0001F3DE
:101CC0007FE03FFBC3CFFEF0F03C3DEF0003E33F7E
:101CD000807FFBC3DFFEF0F03C3DEF0007E73C00F8
:101CE000787BC3DE1EF0F03C3DEF0007FFBE0078BE
:101CF0007BC3DE1EF0F03C3DEF0007FFFE00787B6B
:101D0000C3DE1EF0F03C3DEF000FFFFE007FFBFF47
:101D1000DFFEF0F03FFDEFE00FFFFF007FFBFFDF96
:101D2000FEF0F03FFDEFE00FF9FF003E79F9CF9EA6
:101D3000F0F01F3DE7E01FF1FF0000000000000091
:101D400000000000001F80FF007FFFFFFFFFFFFF7C
:101D5000FFFFFFE01C007F007FFFFFFFFEB46D88E8
:101D60008D18E000001F007FFFFFFFFE95AD7DB5E1
:101D700077E000000F007FFFFFFFFEA5AD9D8D19EE
:101D8000E0000006007FFFFFFFFEB5ADEDB57EE091
:101D900000000000000180000000000000000000C2
:101DA000038000000000000000000007C0000000E9
:101DB00000000000000007C000000000000000005C
:101DC000000FC00000000000000000001FE0000045
:101DD000000000000000001FE00000000000000004
:101DE00000003FE00000000000000000003FF000A5
:101DF00000000000000000007FF000000000000074
:101E0000001FF87FF0000000000000003FFE7FF0A0
:101E1000000000000000003FFF7FF0000000000015
:101E200000001FFFFBE0000000000000000FFFF9B2
:101E3000FFC00000000000000FFFF9FFF8000000E5
:101E400000000007FFF1FFFF00000000000003FC9E
:101E500073FFFF80000000000001FE3FFFFF8000D5
:101E60000000000000FF1E0FFF0000000000000047
:101E70007FFE1FFC000000000000003FFFFFF80095
:101E80000000000000000FDFFFE000000000000085
:101E9000001F19FFC0000000000000003F3CFF00D1
:101EA000000000000000007E7CF800000000000040
:101EB00000007FFE7C0000000000000000FFFFFC2F
:101EC0000000000000000000FFFFFE000000000016
:101ED000000000FFFFFE0000000000000001FFEF17
:101EE000FE0000000000000001FFCFFE0000000027
:101EF00000000003FF07FE0000000000000003FCDC
:101F000007FE0000000000000003F003FE000000D8
:101F100000000000018000FE000000000000000042
:101F200000007E000000000000000000003E0000F5
:101F300000000000000000000C000000000000078E
:101F40008000FC000003C0000000078001FC0000CE
:101F500003C0000000078001FC000003C000000077
:101F6000078001E00000001E000000078001E00083
:101F700000001E007FE3F79FF9FDE7787BDFC0FFDD
:101F8000F7FFBFFDFDFF787BDFC0FFF7FFBFFDFD63
:101F9000FF787BDFC0F0F787BC3DE1FF787BDE0098
:101FA000F0F787BC3DE1F0787BDE0000F787803DED
:101FB000E1E0787BDE007FF7879FFDE1E0787BDE64
:101FC00000FFF787BFFDE1E0787BDE00F0F787BC1C
:101FD0003DE1E0787BDE00F0F787BC3DE1E0787B17
:101FE000DE00F0F787BC3DE1E0787BDE00FFF7FF25
:101FF000BFFDE1E07FFBDFC0FFF7FFBFFDE1E07F5A
:10200000FBDFC07CF3F39F3DE1E03E7BCFC00000EF
:10201000000000000000000000FFFFFFFFFFFFFFC7
:10202000FFFFFFC0FFFFFFFFFD68DB111A31C0FF9C
:10203000FFFFFFFD2B5AFB6AEFC0FFFFFFFFFD4BC9
:102040005B3B1A33C0FFFFFFFFFD6B5BDB6AFDC02C
:102050000000000203000A0B00000000050409084C
:102060000000000000000000000000000000000070
:102070000102040810204080010204081020408062
:102080000102040810204080010204081020408052
:102090000202020202020202040404040404040410
:1020A0000303030303030303010101010101010110
:1020B0000000200023002600290000002200250047
:1020C00028002B0000002100240027002A00551CB6
:1020D000E254CE1C11241FBECFEFD0E4DEBFCDBF33
:1020E00013E0A0E0B1E0E2E7FEEE00E00BBF02C0CB
:1020F00007900D92A630B107D9F72AE0A6E0B3E029
:1021000001C01D92AB3DB207E1F710E1C9E6D0E195
:1021100004C02197FE010E942575C736D107C9F773
:102120000E9447700C942C770C9400000F931F931F
:102130000E94926C0091860310918703209188037E
:1021400030918903601B710B820B930B653F7140CB
:102150008105910560F08091480991E0892780937D
:10216000480990934D0910923B0110923A0181E089
:1021700099E00E94CA4E0E94926C6093860370930D
:10218000870380938803909389031F910F9108958B
:102190000C9416770C941E77CF92DF92EF92FF92F9
:1021A0000F931F9381E00E94D06D892B51F50E94FF
:1021B000926C0091820310918303209184033091EB
:1021C0008503601B710B820B930B693C71058105C4
:1021D000910560F08091490990914A098097909308
:1021E0004A098093490981E080934D090E94926CCD
:1021F0006093820370938303809384039093850399
:10220000D1CF40914B0950914C096091490970918F
:102210004A09605E7F4FD12CC12C83E0E82EF12C5F
:1022200000E210E020E230E081E099E00E94C64741
:102230001F910F91FF90EF90DF90CF900895CF9274
:10224000DF92EF92FF920F931F93CF93C1E080E054
:102250000E94D06D892B09F040C00E94926C0091C1
:102260007E0310917F032091800330918103601BD6
:10227000710B820B930B693C71058105910558F038
:102280008091490990914A09809690934A098093D8
:102290004909C0934D090E94926C60937E0370932C
:1022A0007F03809380039093810340914B09509169
:1022B0004C096091490970914A0960527109D12C09
:1022C000C12C83E0E82EF12C00E210E020E230E0A7
:1022D00081E099E00E94C647BACFCF911F910F913C
:1022E000FF90EF90DF90CF9008954F925F926F92A2
:1022F0007F928F929F92AF92BF92CF92DF92EF9296
:10230000FF920F931F93CF93DF93EC016A017B0140
:1023100020E030E0A901CB01B6010E94617161E0CB
:1023200087FF60E0CE010E94CA106AE070E080E0A2
:1023300090E00E94C36CC701B6010E94DD718B0161
:1023400077FF04C000271127061B170BB801110FD8
:10235000880B990B0E9415729B01AC01C701B60155
:102360000E9467706B017C0120E030E048EC52E491
:102370000E94C4730E94DD712B01072E000C880B94
:10238000990B0E9415722AE037ED43E25CE30E944C
:10239000C4739B01AC01C701B6010E9467704B0179
:1023A0005C0120E030E44CE156E40E94C4730E94DA
:1023B000DD716B01602FCE0101960E94CA106AE0A8
:1023C00070E080E090E00E94C36C642DCE01029624
:1023D0000E94CA106AE070E080E090E00E94C36C46
:1023E0006C2DCE0103960E94CA106AE070E080E076
:1023F00090E00E94C36CB601DD0C880B990B0E9423
:10240000157227E137EB41ED58E30E94C4739B013D
:10241000AC01C501B4010E94677020E034E244E7DA
:1024200059E40E94C4730E94DD71CE0104960E949B
:10243000CA106AE070E080E090E0DF91CF911F91D8
:102440000F91FF90EF90DF90CF90BF90AF909F9053
:102450008F907F906F905F904F900C94C36C4F92D1
:102460005F926F927F928F929F92AF92BF92CF9224
:10247000DF92EF92FF92CF93DF9300D000D0CDB7E1
:10248000DEB77C010E94C81089836AE070E080E0BA
:1024900090E00E94C36CC70101960E94C810482EAC
:1024A000512C6AE070E080E090E00E94C36CC701AC
:1024B00002960E94C810A82EB12C6AE070E080E05D
:1024C00090E00E94C36CC70103960E94C810882E3A
:1024D000912C6AE070E080E090E00E94C36CC7013C
:1024E00004960E94C810C82ED12C6AE070E080E0EB
:1024F00090E00E94C36CB501BB0C880B990B052CB6
:10250000000C66087708092C000CAA08BB080D2CE3
:10251000000CEE08FF082981213009F050C00E940C
:1025200015722AE037ED43E25CE30E94C4736983CD
:102530007A838B839C83C301B2010E9415729B0135
:10254000AC0169817A818B819C810E9468702B012A
:102550003C01C501B4010E94157227E137EB41ED42
:1025600058E30E94C4739B01AC01C301B2010E94F5
:1025700068704B015C01C701B6010E9415722DEB1A
:1025800037E346E855E30E94C4739B01AC01C501E3
:10259000B4010E94687090580F900F900F900F90A8
:1025A000DF91CF91FF90EF90DF90CF90BF90AF90F1
:1025B0009F908F907F906F905F904F9008950E94B2
:1025C00015722AE037ED43E25CE30E94C47369832D
:1025D0007A838B839C83C301B2010E9415729B0195
:1025E000AC0169817A818B819C810E9468702B018A
:1025F0003C01C501B4010E94157227E137EB41EDA2
:1026000058E30E94C4739B01AC01C301B2010E9454
:1026100068704B015C01C701B6010E9415722DEB79
:1026200037E346E855E30E94C4739B01AC01C50142
:10263000B4010E946870B0CFCF92DF92EF92FF9208
:102640006B017C0120E030E84CE253EC0E94B77350
:10265000181654F420E030E84DE153ECC701B60100
:102660000E94617187FDD4C120E030E84DE153EC58
:10267000C701B6010E94B773181654F420E030E881
:102680004EE053ECC701B6010E94617187FDC3C1E2
:1026900020E030E84EE053ECC701B6010E94B7736A
:1026A000181654F420E030E04FEF52ECC701B601A9
:1026B0000E94617187FDB2C120E030E04FEF52EC23
:1026C000C701B6010E94B773181654F420E030E039
:1026D00041EE52ECC701B6010E94617187FDA1C1B4
:1026E00020E030E041EE52ECC701B6010E94B77322
:1026F000181654F420E030E043EC52ECC701B60168
:102700000E94617187FD90C120E030E043EC52E40B
:10271000C701B6010E94B773181654F420E030E0E8
:1027200045EA52ECC701B6010E94617187FD7FC185
:1027300020E030E045EA52ECC701B6010E94B773D1
:10274000181654F420E030E047E852ECC701B60117
:102750000E94617187FD6EC120E030E047E852ECD5
:10276000C701B6010E94B773181654F420E030E098
:1027700042E552ECC701B6010E94617187FD5DC15F
:1027800020E030E042E552ECC701B6010E94B77389
:10279000181654F420E030E046E152ECC701B601CF
:1027A0000E94617187FD4CC120E030E046E152ECAF
:1027B000C701B6010E94B773181654F420E030E048
:1027C00044EB51ECC701B6010E94617187FD3BC12A
:1027D00020E030E044EB51ECC701B6010E94B77332
:1027E000181654F420E030E040EF50ECC701B60179
:1027F0000E94617187FD2AC120E030E040EF50EC7B
:10280000C701B6010E94B773181654F420E030E0F7
:1028100040EF50E4C701B6010E94617187FD3AC1E3
:1028200020E030E040EF50E4C701B6010E94B773EA
:10283000181654F420E030E044EB51E4C701B6012F
:102840000E94617187FD05C120E030E044EB51E456
:10285000C701B6010E94B773181654F420E030E0A7
:1028600046E152E4C701B6010E94617187FDF4C0E0
:1028700020E030E046E152E4C701B6010E94B773A0
:10288000181654F420E030E042E552E4C701B601E6
:102890000E94617187FDE3C020E030E042E552E430
:1028A000C701B6010E94B773181654F420E030E057
:1028B00047E852E4C701B6010E94617187FDD2C0AA
:1028C00020E030E047E852E4C701B6010E94B77348
:1028D000181654F420E030E045EA52E4C701B6018E
:1028E0000E94617187FDC1C020E030E045EA52E4FA
:1028F000C701B6010E94B773181654F420E030E007
:1029000043EC52E4C701B6010E94617187FDB0C07B
:1029100020E030E043EC52E4C701B6010E94B773F7
:10292000181654F420E030E041EE52E4C701B6013D
:102930000E94617187FD9FC020E030E041EE52E4CB
:10294000C701B6010E94B773181654F420E030E0B6
:102950004FEF52E4C701B6010E94617187FD8EC03E
:1029600020E030E04FEF52E4C701B6010E94B77398
:10297000181654F420E030E84EE053E4C701B601E5
:102980000E94617187FD7DC020E030E84EE053E495
:10299000C701B6010E94B773181654F420E030E85E
:1029A0004DE153E4C701B6010E94617187FD6CC01F
:1029B00020E030E84DE153E4C701B6010E94B7734F
:1029C000181654F420E030E84CE253E4C701B60195
:1029D0000E94617187FD5BC020E030E84CE253E467
:1029E000C701B6010E94B77318160CF053C020E05F
:1029F00030E84BE353E4C701B6010E94617187FFE1
:102A000049C08CE090E0FF90EF90DF90CF90089568
:102A100085EF9FEFF8CF86EF9FEFF5CF87EF9FEF22
:102A2000F2CF88EF9FEFEFCF89EF9FEFECCF8AEFE8
:102A30009FEFE9CF8BEF9FEFE6CF8CEF9FEFE3CFD8
:102A40008DEF9FEFE0CF8EEF9FEFDDCF8FEF9FEF0A
:102A5000DACF81E090E0D7CF82E090E0D4CF83E07E
:102A600090E0D1CF84E090E0CECF85E090E0CBCF76
:102A700086E090E0C8CF87E090E0C5CF88E090E0A6
:102A8000C2CF89E090E0BFCF8AE090E0BCCF8BE07E
:102A900090E0B9CF90E080E0B6CF60E085E10E94A1
:102AA000A26D6AE070E080E090E00E94C36C61E09B
:102AB00085E10C94A26D8F929F92AF92BF92CF92BC
:102AC000DF92EF92FF92CF93DF9320E030E0A901F5
:102AD0006091240170912501809126019091270138
:102AE0000E94617161E087FF60E084E090E00E94F5
:102AF000CA106AE070E080E090E00E94C36CC09071
:102B00002401D0902501E0902601F0902701C70113
:102B1000B6010E94DD71EB0177FF04C0CC27DD27F1
:102B2000C61BD70BBE01DD0F880B990B0E941572D7
:102B30009B01AC0120938F09309390094093910938
:102B400050939209C701B6010E9467706B017C0126
:102B500020E030E048EC52E40E94C4730E94DD7132
:102B6000072E000C880B990B0E9415724B015C011B
:102B70002AE037ED43E25CE30E94C4739B01AC01A1
:102B8000C701B6010E9467706B017C0120E030E450
:102B90004CE156E40E94C4730E94DD71072E000CC4
:102BA000880B990B0E941572809293099092940958
:102BB000A0929509B092960960939709709398092D
:102BC0008093990990939A0927E137EB41ED58E3F7
:102BD0000E94C4739B01AC01C701B6010E946770DB
:102BE00020E034E244E759E40E94C4730E94DD719E
:102BF000072E000C880B990B0E94157260939B099D
:102C000070939C0980939D0990939E0910928A0964
:102C1000109289096C2F90E080E00E94CA1081E038
:102C200090E09093880980938709C0918709D0919B
:102C30008809C430D10544F5E0918909F0918A09E9
:102C4000EE0FFF1FEE0FFF1FED56F64F60817181F3
:102C5000828193810E94E471CE010E94CA1080910A
:102C6000890990918A09019690938A09809389092C
:102C70006AE070E080E090E00E94C36C8091870978
:102C8000909188090196CDCF20E030E0A9016091B4
:102C900028017091290180912A0190912B010E94B5
:102CA000617161E087FF60E089E090E00E94CA10F6
:102CB0006AE070E080E090E00E94C36CC090280160
:102CC000D0902901E0902A01F0902B01C701B601B4
:102CD0000E94DD71EB0177FF04C0CC27DD27C61B06
:102CE000D70BBE01DD0F880B990B0E9415729B015B
:102CF000AC012093A3093093A4094093A5095093F4
:102D0000A609C701B6010E9467706B017C0120E033
:102D100030E048EC52E40E94C4730E94DD71072E3B
:102D2000000C880B990B0E9415724B015C012AE084
:102D300037ED43E25CE30E94C4739B01AC01C70121
:102D4000B6010E9467706B017C0120E030E44CE129
:102D500056E40E94C4730E94DD71072E000C880B9C
:102D6000990B0E9415728092A7099092A809A092CF
:102D7000A909B092AA096093AB097093AC0980933A
:102D8000AD099093AE0927E137EB41ED58E30E947E
:102D9000C4739B01AC01C701B6010E94677020E0BB
:102DA00034E244E759E40E94C4730E94DD71072EA7
:102DB000000C880B990B0E9415726093AF097093F9
:102DC000B0098093B1099093B20910928A091092C8
:102DD00089096C2F85E090E00E94CA1086E090E09F
:102DE0009093880980938709C0918709D0918809B9
:102DF000C930D10544F5E0918909F0918A09EE0FB7
:102E0000FF1FEE0FFF1FE955F64F60817181828130
:102E100093810E94E471CE010E94CA1080918909B9
:102E200090918A09019690938A09809389096AE0B2
:102E300070E080E090E00E94C36C809187099091DF
:102E400088090196CDCFDF91CF91FF90EF90DF9071
:102E5000CF90BF90AF909F908F9008954F925F92C8
:102E60006F927F928F929F92AF92BF92CF92DF929A
:102E7000EF92FF920F931F93CF93DF9300D000D078
:102E8000CDB7DEB790E080E00E94C810682F70E0F8
:102E900090E080E00E94137260938F097093900914
:102EA000809391099093920910928A09109289094E
:102EB00081E090E090938809809387098091870949
:102EC000909188098430910574F50E94C810209172
:102ED000890930918A093A8329838901000F111FDA
:102EE000000F111F0D56164F682F70E090E080E024
:102EF0000E941372F8016083718382839383298116
:102F00003A812F5F3F4F30938A09209389096AE005
:102F100070E080E090E00E94C36C809187099091FE
:102F200088090196C7CF84E090E00E94C8104090C5
:102F30008F095090900960909109709092092091AA
:102F400093093091940940919509509196092983EC
:102F50003A834B835C838090970990909809A09066
:102F60009909B0909A09C0909B09D0909C09E09073
:102F70009D09F0909E092AE037ED43E25CE3813041
:102F800009F085C069817A818B819C810E94C4731C
:102F9000A30192010E9468702B013C0127E137EBED
:102FA00041ED58E3C501B4010E94C4739B01AC011B
:102FB000C301B2010E9468704B015C012DEB37E345
:102FC00046E855E3C701B6010E94C4739B01AC01FA
:102FD000C501B4010E946870905860938B0970938A
:102FE0008C0980938D0990938E0985E090E00E9472
:102FF000C810682F70E090E080E00E941372609328
:10300000A3097093A4098093A5099093A60910922F
:103010008A091092890986E090E09093880980934C
:1030200087098091870990918809893091050CF072
:1030300059C00E94C8104091890950918A095A8349
:1030400049838A01000F111F000F111F0955164FE8
:10305000682F70E090E080E00E941372F8016083B6
:1030600071838283938329813A812F5F3F4F30930D
:103070008A09209389096AE070E080E090E00E946C
:10308000C36C80918709909188090196C6CF6981A8
:103090007A818B819C810E94C473A30192010E945A
:1030A00068702B013C0127E137EB41ED58E3C50186
:1030B000B4010E94C4739B01AC01C301B2010E9420
:1030C00068704B015C012DEB37E346E855E3C7011F
:1030D000B6010E94C4739B01AC01C501B4010E94FA
:1030E00068707BCF89E090E00E94C8104090A309EF
:1030F0005090A4096090A5097090A6092091A70995
:103100003091A8094091A9095091AA0929833A83CD
:103110004B835C838090AB099090AC09A090AD0983
:10312000B090AE09C090AF09D090B009E090B1095D
:10313000F090B2092AE037ED43E25CE3813009F018
:1031400048C069817A818B819C810E94C473A301EC
:1031500092010E9468702B013C0127E137EB41EDA1
:1031600058E3C501B4010E94C4739B01AC01C301C3
:10317000B2010E9468704B015C012DEB37E346E819
:1031800055E3C701B6010E94C4739B01AC01C501A0
:10319000B4010E946870905860939F097093A009D1
:1031A0008093A1099093A2090F900F900F900F9018
:1031B000DF91CF911F910F91FF90EF90DF90CF9013
:1031C000BF90AF909F908F907F906F905F904F9047
:1031D000089569817A818B819C810E94C473A301C7
:1031E00092010E9468702B013C0127E137EB41ED11
:1031F00058E3C501B4010E94C4739B01AC01C30133
:10320000B2010E9468704B015C012DEB37E346E888
:1032100055E3C701B6010E94C4739B01AC01C5010F
:10322000B4010E946870B8CF0F931F930E94926CF4
:1032300000914109109142092091430930914409BC
:10324000601B710B820B930B643F714081059105EC
:1032500030F08091450991E089278093450960917C
:10326000450980E01F910F910C94A26DCF92DF92DF
:10327000EF92FF920F931F93CF93DF93EC0161E0E6
:1032800081E099E00E944C4C81E090E09093140919
:10329000809313099093120980931109209709F0E4
:1032A00045C086E190E090930E0980930D0989E373
:1032B00090E09093100980930F0961EE71E081E036
:1032C00099E00E94356ECC24C394D12C04E3E02E07
:1032D000F12C04E310E020EC37E050E040E066E23F
:1032E00070E081E099E00E94B248C530D10509F054
:1032F00065C089E190E090930E0980930D0989E300
:1033000090E09093100980930F096CE971E081E0DF
:1033100099E00E94356ECC24C394D12C34E3E32E83
:10332000F12C04E310E022E231E187C0C130D10585
:10333000E9F483E190E090930E0980930D0989E30D
:1033400090E09093100980930F0961ED71E081E0A6
:1033500099E00E94356ECC24C394D12CB4E3EB2EBB
:10336000F12C04E310E028E236E0B7CFC230D105FB
:1033700009F044C085E290E090930E0980930D0916
:1033800089E390E09093100980930F0967EC71E056
:1033900081E099E00E94356ECC24C394D12CF4E3F3
:1033A000EF2EF12C04E310E02CEB34E050E040E091
:1033B00066E270E081E099E00E94B248269709F049
:1033C00044C08DE090E090930E0980930D0989E34D
:1033D00090E09093100980930F096AE871E081E012
:1033E00099E00E94356ECC24C394D12C94E3E92E4D
:1033F000F12C04E310E02EE832E11FC0C330D10508
:1034000081F589E190E090930E0980930D0989E39D
:1034100090E09093100980930F0969EB71E081E0CF
:1034200099E00E94356ECC24C394D12C74E3E72E2E
:10343000F12C04E310E02AE339E050E040E066E2DA
:1034400070E081E099E00E94B24881E099E0DF916C
:10345000CF911F910F91FF90EF90DF90CF900C9440
:103460005F52C430D10509F040CF86E190E09093DF
:103470000E0980930D0989E390E0909310098093E1
:103480000F096AEA71E081E099E00E94356ECC2470
:10349000C394D12C54E3E52EF12C04E310E026EA8A
:1034A0003AE0CBCFCF93DF9320914D092223A1F0B7
:1034B000EC0181E099E00E94CA4ECE010E943619CB
:1034C00068EE73E080E090E00E94C36C81E099E0D8
:1034D0000E94CA4E10924D0981E080934701DF910E
:1034E000CF910895EF92FF920F931F93CF93DF93A5
:1034F00081E099E00E94CA4E83ED98E00E94086046
:103500004091D3085091D4088091B6099091B709A1
:10351000841795070CF4CA019093B7098093B609F4
:103520002091D5083091D6088091B8099091B909B9
:10353000821793070CF4C9019093B9098093B809D5
:103540008091D7089091D8086091BA097091BB0911
:10355000681779070CF4BC017093BB096093BA0932
:103560006091BC097091BD09461757070CF4BA0168
:103570007093BD096093BC094091BE095091BF0989
:10358000241735070CF4A9015093BF094093BE09D5
:103590002091C0093091C109821793070CF49C0156
:1035A0003093C1092093C00910920E0910920D09A1
:1035B0001092100910920F0965EE71E081E099E018
:1035C0000E94596E06E210E010930E0900930D0957
:1035D0001092100910920F0968EE71E081E099E0F5
:1035E0000E94596ECCE4D0E0D0930E09C0930D092F
:1035F0001092100910920F096CEE71E081E099E0D1
:103600000E94596E10920E0910920D098AE0E82E60
:10361000F12CF0921009E0920F096091D30870919B
:10362000D408072E000C880B990B0E94157220E01D
:1036300030E040E858E30E94C473AB01BC0122E0D3
:1036400030E081E099E00E94017010930E09009330
:103650000D09F0921009E0920F096091BC09709178
:10366000BD09072E000C880B990B0E94157220E0F3
:1036700030E040E858E30E94C473AB01BC0122E093
:1036800030E081E099E00E940170D0930E09C09370
:103690000D09F0921009E0920F096091B60970913E
:1036A000B709072E000C880B990B0E94157220E0B9
:1036B00030E040E858E30E94C473AB01BC0122E053
:1036C00030E081E099E00E94017010920E091092A2
:1036D0000D0984E190E09093100980930F0960EF49
:1036E00071E081E099E00E94596E10920E091092EB
:1036F0000D099EE1E92EF12CF0921009E0920F09DC
:103700006091D5087091D608072E000C880B990B94
:103710000E94157220E030E040E858E30E94C47334
:10372000AB01BC0122E030E081E099E00E94017031
:1037300010930E0900930D09F0921009E0920F0901
:103740006091BE097091BF09072E000C880B990B80
:103750000E94157220E030E040E858E30E94C473F4
:10376000AB01BC0122E030E081E099E00E940170F1
:10377000D0930E09C0930D09F0921009E0920F0941
:103780006091B8097091B909072E000C880B990B4C
:103790000E94157220E030E040E858E30E94C473B4
:1037A000AB01BC0122E030E081E099E00E940170B1
:1037B00010920E0910920D0988E290E09093100982
:1037C00080930F0963EF71E081E099E00E94596EE8
:1037D00010920E0910920D0922E3E22EF12CF092C4
:1037E0001009E0920F096091D7087091D808072E50
:1037F000000C880B990B0E94157220E030E040E825
:1038000058E30E94C473AB01BC0122E030E081E0C8
:1038100099E00E94017010930E0900930D09F09237
:103820001009E0920F096091C0097091C109072E3B
:10383000000C880B990B0E94157220E030E040E8E4
:1038400058E30E94C473AB01BC0122E030E081E088
:1038500099E00E940170D0930E09C0930D09F09277
:103860001009E0920F096091BA097091BB09072E07
:10387000000C880B990B0E94157220E030E040E8A4
:1038800058E30E94C473AB01BC0122E030E081E048
:1038900099E00E94017081E099E0DF91CF911F9142
:1038A0000F91FF90EF900C945F528F929F92AF9286
:1038B000BF92CF92DF92EF92FF920F93E7E8F9E089
:1038C0001182108213821282E6E4F9E011821082E2
:1038D0001282148213821682158217821086118634
:1038E00012861386148680E3EDE9F1E0A7E5B9E0DE
:1038F00001900D928A95E1F780EA882E86E8982E4D
:10390000AA24A394B12C90E8C92E9AE1D92E96E06E
:10391000E92EF12C0FEF26EC39E040E460E881E07D
:1039200099E00E94304D83ED98E00E943E5E86E271
:1039300098E00E94BB6320E044E163E187E098E007
:103940000E94146362E086EE97E00E94756B21E0AE
:1039500030E046EF51E066E278E08AEB97E00E94C3
:103960004A6B22E030E046EF51E066E278E08EE814
:1039700097E00E944A6B23E030E046EF51E066E2B8
:1039800078E082E697E00F91FF90EF90DF90CF9084
:10399000BF90AF909F908F900C944A6B87E098E017
:1039A0000E94B96281E099E00C947B4DAF92BF9286
:1039B000CF92DF92EF92FF920F931F93CF93DF93FB
:1039C00041E050E066E970E182E00E94976B01E01F
:1039D00021E04CE362E081E099E00E94E84E811131
:1039E00003C00E941419FDCF81E099E00E94CA4EE5
:1039F00061E081E099E00E944C4CC1E0D0E0D093BE
:103A00001409C0931309D0931209C0931109D093DC
:103A10000E09C0930D09D0931009C0930F096BEAEA
:103A200074E081E099E00E94356E81E099E00E94A7
:103A30005F5264EF71E080E090E00E94C36C62E04E
:103A400082E00E94666D62E081E00E94666D62E045
:103A500080E00E94666DD0930E09C0930D098BE043
:103A600090E09093100980930F096DE974E081E074
:103A700099E00E94356E81E099E00E945F5264EF08
:103A800071E080E090E00E94C36C40E855E260E0A5
:103A900070E087E098E00E943F6322EBA22E26E0D0
:103AA000B22E32E0C32E36E0D32E42E5E42E45E0BE
:103AB000F42E02EA14E0C4E0D0E09E0146EF51E0AB
:103AC00066E278E0C5010E94296B9E012F5F3F4F9F
:103AD00046EF51E066E278E0C6010E94296B9E0144
:103AE0002E5F3F4F46EF51E066E278E0C7010E944B
:103AF000296B9E012D5F3F4F46EF51E066E278E073
:103B0000C8010E94296B8CE2A80EB11C24968CE29D
:103B1000C80ED11C8CE2E80EF11C045D1F4FC431AD
:103B2000D10559F6C1E0D0E0D0930E09C0930D093C
:103B300085E190E09093100980930F09D0931409C8
:103B4000C0931309D0931209C09311096DE874E072
:103B500081E099E00E94356E81E099E00E945F5219
:103B600064EF71E080E090E00E94C36C86EC99E025
:103B70000E94445442E050E064E070E083ED98E03D
:103B80000E943C6083ED98E00E94A95E86E0EDEC27
:103B9000F1E0A5EEB8E001900D928A95E1F786E09C
:103BA000E3EDF1E0AFEDB8E001900D928A95E1F719
:103BB000D0930E09C0930D098FE190E09093100906
:103BC00080930F0969E774E081E099E00E94356E07
:103BD00081E099E00E945F5264EF71E080E090E044
:103BE0000E94C36CD0930E09C0930D0989E290E046
:103BF0009093100980930F096AE674E081E099E0E0
:103C00000E94356E81E099E00E945F52809123010D
:103C100091E0892780932301C5E0D0E0DD24D3948F
:103C2000F12CE12C07E010E027E030E043E350E026
:103C300061E070E081E099E00E94E542809123011B
:103C40008D258093230121E030E030930E092093ED
:103C50000D0923E330E03093100920930F096FE53D
:103C6000811101C060E281E099E00E94616E81E013
:103C700099E00E945F526CE271E080E090E00E9467
:103C8000C36C219769F668EE73E080E090E00E94D3
:103C9000C36C81E099E00E94CA4ECC24C394D12C1D
:103CA0009CE3E92EF12C08E410E022E13CE042E044
:103CB00050E06CE170E081E099E00E94B24881E060
:103CC00099E00E945F5268EB7BE080E090E00E9408
:103CD000C36C81E099E0DF91CF911F910F91FF902C
:103CE000EF90DF90CF90BF90AF900C94CA4E4F9260
:103CF0005F926F927F92AF92BF92CF92DF92EF92DC
:103D0000FF920F931F93CF93DF9300D000D0CDB7D6
:103D1000DEB782E00E94D06D892B19F481E0809398
:103D200048019091480180914701981303C081E0B8
:103D300080934D0980914D09882309F449C061E0C1
:103D400081E099E00E944C4C81E090E0909314094E
:103D500080931309909312098093110981E099E0EF
:103D60000E94CA4ECC24C394D12C56E3E52EF12CEC
:103D700006E310E02EE23EE050E040E068E270E052
:103D800081E099E00E94B2488CE190E090930E09A6
:103D900080930D0989E390E09093100980930F09B7
:103DA00062E372E081E099E00E94356E81E099E083
:103DB0000E945F5268EE73E080E090E00E94C36C66
:103DC00081E099E00E94CA4E10924D09109247017D
:103DD00081E099E00E94CA4E61E081E099E00E9492
:103DE0004C4C81E090E090931409809313099093D8
:103DF0001209809311092FE1C22ED12CD0920E0905
:103E0000C0920D099093100980930F0966E272E049
:103E100081E099E00E94356E81E090E090930E0978
:103E200080930D098BE090E09093100980930F0927
:103E30004091240150912501609126017091270144
:103E400026E030E081E099E00E9401706CE281E0C0
:103E500099E00E94616E4091280150912901609182
:103E60002A0170912B0126E030E081E099E00E9468
:103E7000017081E090E090930E0980930D0985E137
:103E800090E09093100980930F09EE24E394F12CB5
:103E900009E010E020E830E044E150E070E060E04C
:103EA00081E099E00E94E5421092140910921309F2
:103EB000109212091092110961E172E081E099E01B
:103EC0000E94356EF0920E09E0920D09D092100911
:103ED000C0920F09F0921409E0921309F0921209AE
:103EE000E092110986E298E00E9459675B016C013B
:103EF00086E298E00E942D677B018C0120912801C9
:103F00003091290140912A0150912B0160912401A7
:103F10007091250180912601909127010E943965B9
:103F200060932C0170932D0180932E0190932F01AB
:103F300020E030E0A9016091240170912501809179
:103F40002601909127010E946171811117C020E024
:103F500030E0A901609128017091290180912A0126
:103F600090912B010E946171811108C010922C0167
:103F700010922D0110922E0110922F0140912C01D0
:103F800050912D0160912E0170912F0122E030E0BF
:103F900081E099E00E9401706DE681E099E00E9465
:103FA000616E6CE281E099E00E94616EA090280150
:103FB000B0902901C0902A01D0902B01409024019B
:103FC00050902501609026017090270186E298E0CC
:103FD0000E94596769837A838B839C8386E298E089
:103FE0000E942D678301720129813A814B815C8196
:103FF0000E942966AB01BC0122E030E081E099E03B
:104000000E9401706DE072E081E099E00E94356EDF
:104010000E942E17EE24E394F12C09E010E020E832
:1040200030E048E250E070E060E081E099E00E941A
:10403000E54210921409109213091092120910927D
:104040001109F0920E09E0920D0989E290E0909337
:10405000100980930F0968EF71E081E099E00E94F8
:10406000356EF0920E09E0920D0983E390E0909393
:10407000100980930F09F0921409E0921309F0924D
:104080001209E092110940918B0950918C096091BD
:104090008D0970918E0926E030E081E099E00E9460
:1040A00001706CE281E099E00E94616E40919F098D
:1040B0005091A0096091A1097091A20926E030E019
:1040C00081E099E00E94017081E099E00E945F52D6
:1040D00081E099E00F900F900F900F90DF91CF91BA
:1040E0001F910F91FF90EF90DF90CF90BF90AF9016
:1040F0007F906F905F904F900C94CA4E5F926F923A
:104100007F928F929F92AF92BF92CF92DF92EF9267
:10411000FF920F931F93CF93DF9301E010E089E1AB
:10412000882E912C9BE2A92EB12C2BE0C22ED12CF3
:104130003CE1E32EF12C43E3642E712C82E00E94DB
:10414000D06D892BA1F0C1E080E00E94D06D892B59
:1041500009F06AC081E099E00E94CA4E10923B01CA
:1041600010923A01C09339010E94771EEDCF80E092
:104170000E94D06DEC01892B31F710924709109203
:10418000460981E099E00E94CA4E109314090093F9
:104190001309109312090093110961E081E099E07D
:1041A0000E944C4C5524539420914701252520937F
:1041B000470130E040E250E0BE0181E099E00E941A
:1041C000604C2196C038D10579F790920E09809203
:1041D0000D091093100900930F0962E474E081E067
:1041E00099E00E94356EB0920E09A0920D09D0920E
:1041F0001009C0920F096AE374E081E099E00E941F
:10420000356EF0920E09E0920D09709210096092DD
:104210000F096DE274E081E099E00E94356E81E063
:1042200099E00E945F528ACFDF91CF911F910F9149
:10423000FF90EF90DF90CF90BF90AF909F908F90C6
:104240007F906F905F9008954F925F926F927F92F0
:104250008F929F92AF92BF92CF92DF92EF92FF9296
:104260000F931F93CF93DF9381E00E94D06D892B32
:1042700031F50E94926CC0907A03D0907B03E0905D
:104280007C03F0907D036C197D098E099F09693CC0
:1042900071058105910530F08091B50991E089277C
:1042A0008093B5090E94926C60937A0370937B03AC
:1042B00080937C0390937D03D7CF0E94721A8091E4
:1042C000B509882349F181E00E94D06D892BA9F7B7
:1042D0000E94926CC0907A03D0907B03E0907C03A4
:1042E000F0907D036C197D098E099F09693C710569
:1042F0008105910530F08091B50991E0892780937F
:10430000B5090E94926C60937A0370937B0380934B
:104310007C0390937D03D7CF83ED98E00E940860E3
:104320006091D9087091DA08072E000C880B990B60
:104330000E9415726B017C016091DB087091DC08B2
:10434000072E000C880B990B0E941572A70196018D
:104350000E94027120E030E044E353E40E94C47301
:104360002BED3FE049E450E40E946B716B017C014E
:1043700020E030E0A9010E94617187FD03C3C09273
:104380000E01D0920F01E0921001F09211012091E4
:104390001601309117014091180150911901609157
:1043A00012017091130180911401909115010E94E6
:1043B000C4736B017C0120911A0130911B01409163
:1043C0001C0150911D0160910E0170910F018091AF
:1043D0001001909111010E94C4739B01AC01C701AF
:1043E000B6010E94687060930E0170930F01809374
:1043F0001001909311016093120170931301809347
:1044000014019093150181E099E00E94CA4EEE24B8
:10441000E394F12C09E010E020E830E041E050E0C6
:1044200061E070E081E099E00E94E54261E081E0B6
:1044300099E00E944C4C10921409109213091092AA
:1044400012091092110983E190E090930E09809374
:104450000D0982E090E09093100980930F096DE1BF
:1044600074E081E099E00E94356E81E090E09093E5
:10447000140980931309909312098093110962E043
:1044800081E099E00E944C4CC0900E01D0900F0149
:10449000E0901001F090110120E030E0A901C70187
:1044A000B6010E94B7731816B4F420E030E040E281
:1044B00051E4C701B6010E94617187FF0CC084E717
:1044C00090E090930E0980930D0987E290E090931D
:1044D000100980930F0920E030E040E251E4C70169
:1044E000B6010E94B7731816B4F420E030E048EC2F
:1044F00052E4C701B6010E94617187FF0CC088E6D3
:1045000090E090930E0980930D0987E290E09093DC
:10451000100980930F0920E030E048EC52E4C70115
:10452000B6010E94B773181664F48CE590E090937E
:104530000E0980930D0987E290E090931009809313
:104540000F09C701B6010E94DD714AE050E081E029
:1045500099E00E94FC6E60910E0170910F018091B4
:104560001001909111010E94F166FC010190002060
:10457000E9F79F01225031092817390761F484E7D0
:1045800090E090930E0980930D0984E190E0909360
:10459000100980930F0960910E0170910F018091B5
:1045A0001001909111010E94F166FC010190002020
:1045B000E9F79F01235031092817390761F488E68C
:1045C00090E090930E0980930D0984E190E0909320
:1045D000100980930F0960910E0170910F01809175
:1045E0001001909111010E94F166FC0101900020E0
:1045F000E9F79F01245031092817390761F48CE548
:1046000090E090930E0980930D0984E190E09093DF
:10461000100980930F0960910E0170910F01809134
:104620001001909111010E94F166BC0181E099E0B6
:104630000E94596E61E081E099E00E944C4CCBE20F
:10464000D0E0D0930E09C0930D098DE090E09093D7
:10465000100980930F096EE481E099E00E94616E79
:10466000D0930E09C0930D0986E390E09093100952
:1046700080930F0963E581E099E00E94616E86E115
:1046800090E090930E0980930D09C2E2D0E0D093A0
:104690001009C0930F0967E581E099E00E94616EFF
:1046A00080E490E090930E0980930D09D093100957
:1046B000C0930F0965E481E099E00E94616E21E0FA
:1046C00030E045E250E06DE270E081E099E00E9468
:1046D000604C01E010E02AE130E045E250E06DE29C
:1046E00070E081E099E00E94564422E030E04FE023
:1046F00050E065E070E081E099E00E947F4783E050
:1047000090E090930E0980930D0984E190E09093DE
:10471000100980930F096EE481E099E00E94616EB8
:1047200020910E0130910F01409110015091110123
:1047300060E070E084EB93E40E94677020E030E07A
:1047400044EB52E40E9467702BED3FE049E450E4F3
:104750000E94C47320E030E044E353E40E946B7194
:104760006B017C010E9431744B015C01C701B601F1
:104770000E9466716B017C0120E030E040EA51E468
:10478000C501B4010E94C47320E030E044E152E46A
:104790000E9468700E94DD714B0120E030E040EA29
:1047A00051E4C701B6010E94C47320E030E044E345
:1047B00052E40E9468700E94DD71EE24E394F12CB3
:1047C00084019B0145E250E06DE270E081E099E0F8
:1047D0000E94A74320910E0130910F0140911001DA
:1047E0005091110160E070E084EB93E40E946770E7
:1047F00020E030E044EB52E40E9467702BED3FE094
:1048000049E450E40E94C47320E030E044E353E400
:104810000E946B716B017C010E9431742B013C0181
:10482000C701B6010E9466714B015C0120E030E0D7
:1048300040EA51E4C301B2010E94C47320E030E0B9
:1048400044E152E40E9468700E94DD716B0120E037
:1048500030E040EA51E4C501B4010E94C47320E095
:1048600030E044E352E40E9468700E94DD7101E090
:1048700010E022E030E0A60181E099E00E947F474D
:1048800020E030E044EB52E460910E0170910F01A2
:1048900080911001909111010E9467702BED3FE013
:1048A00049E450E40E94C47320E030E044E353E460
:1048B0000E946B716B017C010E9431744B015C01A1
:1048C000C701B6010E9466716B017C0120E030E0F7
:1048D00040EA51E4C501B4010E94C47320E030E015
:1048E00044E152E40E9468700E94DD714B0120E0B7
:1048F00030E040EA51E4C701B6010E94C47320E0F1
:1049000030E044E352E40E9468700E94DD71EE24BE
:10491000E394F12C84019B0145E250E06DE270E0EC
:1049200081E099E00E94A74360910E0170910F0110
:1049300080911001909111010E94DD716115710546
:1049400049F06A35710531F0643B710519F06E303C
:10495000714049F560E085E10E94A26D81E099E037
:10496000DF91CF911F910F91FF90EF90DF90CF904B
:10497000BF90AF909F908F907F906F905F904F907F
:104980000C945F5220E030E044EB53E4C701B601E1
:104990000E94687060930E0170930F018093100164
:1049A00090931101F4CC61E0D6CF6F927F928F92F9
:1049B0009F92AF92BF92CF92DF92EF92FF920F93AE
:1049C0001F93CF93DF9387E098E00E94E66118166B
:1049D00019060CF03DC487E098E00E945061682FF2
:1049E00086E298E00E946E6A8091DF07882309F4CE
:1049F0002FC482EC882E86E0982EC5E2D0E097E0A6
:104A0000F92EEE24E394D40155961C92C4010E9421
:104A10008E7601973C01889770F5FE01EE5FF94FA5
:104A20001082CE0183519A4F0E948E76F69C8001AF
:104A3000F79C100D112406571C4FF80192838183B7
:104A4000FE01EE5AFA4F1082CE01835C9A4F0E940B
:104A50008E76D80114969C938E931397FE01EE5593
:104A6000FB4F1082CE0183579B4F0E948E76F80138
:104A700096838583E082FCE28F0E911CAC96C53D47
:104A8000D10509F61092DF078AEC97E00E948E7636
:104A9000EC011092B3078EE997E00E948E76C8175A
:104AA000D90709F0D5C320911203309113030AE806
:104AB000602E03E0702EF30190E080E001964081CB
:104AC000442349F0D901AA0FBB1FAC5EBC4F8D93A4
:104AD0009C932F5F3F4F37968832910579F722EAF2
:104AE00034E0DAE88D2ED3E09D2E90E080E0D40112
:104AF0004C91442359F0FC01EE0FFF1FE45DFC4F85
:104B000015964D915C91518340830196B7E08B0ED1
:104B1000911C2815390559F71092130310921203AE
:104B2000EE24E394F12C09E010E020E830E050E0BE
:104B300040E070E060E081E099E00E94E54261E0E1
:104B400081E099E00E944C4C1092140910921309D4
:104B500010921209109211098DE090E090930E09C5
:104B600080930D09C1E0D0E0D0931009C0930F09E4
:104B70006CEF71E081E099E00E94596ED0931409C6
:104B8000C0931309D0931209C0931109C0E5D0E076
:104B9000D0930E09C0930D098BE090E0909310091B
:104BA00080930F0960911403709115034AE050E05F
:104BB00081E099E00E94FC6E6CE281E099E00E9445
:104BC000616E60911603709117034AE050E081E036
:104BD00099E00E94FC6E6CE281E099E00E94616EB7
:104BE00060911803709119034AE050E081E099E068
:104BF0000E94FC6ED0930E09C0930D0985E190E0F0
:104C00009093100980930F0960911A0370911B0310
:104C10004AE050E081E099E00E94FC6E6CE281E0A5
:104C200099E00E94616E60911C0370911D034AE03F
:104C300050E081E099E00E94FC6E6CE281E099E036
:104C40000E94616E60911E0370911F034AE050E064
:104C500081E099E00E94FC6ED0930E09C0930D098B
:104C60008FE190E09093100980930F0960912003E9
:104C7000709121034AE050E081E099E00E94FC6ECF
:104C80006CE281E099E00E94616E60912203709174
:104C900023034AE050E081E099E00E94FC6E6CE260
:104CA00081E099E00E94616E609124037091250378
:104CB0004AE050E081E099E00E94FC6ED0930E093A
:104CC000C0930D0989E290E09093100980930F0939
:104CD00060912603709127034AE050E081E099E05B
:104CE0000E94FC6E6CE281E099E00E94616E60912E
:104CF0002803709129034AE050E081E099E00E9486
:104D0000FC6E6CE281E099E00E94616E60912A0382
:104D100070912B034AE050E081E099E00E94FC6E24
:104D200003E310E020E830E043E350E06EE470E09D
:104D300081E099E00E94A743D0930E09C0930D092A
:104D400087E390E09093100980930F096CE472E080
:104D500081E099E00E94356E10928F08409194088E
:104D60005091950860919608709197082AE030E07C
:104D700081E099E00E94036FCAE0D0E011E0209149
:104D8000470130E0AE0163E170E081E099E00E940C
:104D9000604C809147018127809347012196C03460
:104DA000D10569F7CAE0D0E011E02091470130E079
:104DB000AE0166E270E081E099E00E94604C809173
:104DC00047018127809347012196C034D10569F7B7
:104DD000CAE0D0E011E02091470130E0AE0169E384
:104DE00070E081E099E00E94604C8091470181274A
:104DF000809347012196C034D10569F7EE24E394EE
:104E0000F12C0FE310E02DE430E04AE050E06DE4D7
:104E100070E081E099E00E94A74360912C037091BB
:104E20002D03072E000C880B990B1F921F921F92C7
:104E3000CBE4CF93A12CB12C6501A39413E6E12E12
:104E4000F12C00E010E020E030E0A9010E940370A6
:104E5000EE24E394F12C03E010E09B014DE050E0E0
:104E600070E060E081E099E00E94E54260912E03ED
:104E700070912F03072E000C880B990B1F921F9225
:104E80001F92CF9313E6E12EF12C00E010E020E01A
:104E900030E0A9010E940370EE24E394F12C03E0BA
:104EA00010E09B0141E150E070E060E081E099E0BA
:104EB0000E94E5426091300370913103072E000C8F
:104EC000880B990B1F921F921F92CF9313E6E12E2E
:104ED000F12C00E010E020E030E0A9010E94037016
:104EE000EE24E394F12C03E010E09B0145E150E057
:104EF00070E060E081E099E00E94E5426091320359
:104F000070913303072E000C880B990B1F921F9290
:104F10001F92CF9313E6E12EF12C00E010E020E089
:104F200030E0A9010E940370EE24E394F12C03E029
:104F300010E09B0149E150E070E060E081E099E021
:104F40000E94E5426091340370913503072E000CF6
:104F5000880B990B1F921F921F92CF9313E6E12E9D
:104F6000F12C00E010E020E030E0A9010E94037085
:104F7000EE24E394F12C03E010E09B014DE150E0BE
:104F800070E060E081E099E00E94E54260913603C4
:104F900070913703072E000C880B990B1F921F92FC
:104FA0001F92CF9313E6E12EF12C00E010E020E0F9
:104FB00030E0A9010E940370EE24E394F12C03E099
:104FC00010E09B0141E250E070E060E081E099E098
:104FD0000E94E5426091380370913903072E000C5E
:104FE000880B990B1F921F921F92CF9313E6E12E0D
:104FF000F12C00E010E020E030E0A9010E940370F5
:10500000EE24E394F12C03E010E09B0145E250E034
:1050100070E060E081E099E00E94E54260913A032F
:1050200070913B03072E000C880B990B1F921F9267
:105030001F92CF9313E6E12EF12C00E010E020E068
:1050400030E0A9010E940370EDB7FEB7B0960FB62D
:10505000F894FEBF0FBEEDBFEE24E394F12C03E005
:1050600010E09B0149E250E070E060E081E099E0EF
:105070000E94E54260913C0370913D03072E000CB5
:10508000880B990B1F921F921F92CF9313E6E12E6C
:10509000F12C00E010E020E030E0A9010E94037054
:1050A000EE24E394F12C03E010E09B014DE250E08C
:1050B00070E060E081E099E00E94E54260913E038B
:1050C00070913F03072E000C880B990B1F921F92C3
:1050D0001F92CF9313E6E12EF12C00E010E020E0C8
:1050E00030E0A9010E940370EE24E394F12C03E068
:1050F00010E09B0141E350E070E060E081E099E066
:105100000E94E5426091400370914103072E000C1C
:10511000880B990B1F921F921F92CF9313E6E12EDB
:10512000F12C00E010E020E030E0A9010E940370C3
:10513000EE24E394F12C03E010E09B0145E350E002
:1051400070E060E081E099E00E94E54260914203F6
:1051500070914303072E000C880B990B1F921F922E
:105160001F92CF9313E6E12EF12C00E010E020E037
:1051700030E0A9010E940370EE24E394F12C03E0D7
:1051800010E09B0149E350E070E060E081E099E0CD
:105190000E94E5422DB73EB7205F3F4F0FB6F8940F
:1051A0003EBF0FBE2DBFD3011C92B7E06B0E711C2A
:1051B00068147904C1F710928F0880919408909137
:1051C0009508A0919608B0919708892B8A2B8B2B74
:1051D00049F51092140910921309109212091092B5
:1051E0001109EE24E394F12C09E010E029E430E009
:1051F0004FE150E062E070E081E099E00E94E5421A
:1052000083E090E090930E0980930D0980E290E096
:105210009093100980930F096FE372E081E099E0A9
:105220000E94356E81E099E00E945F5281E099E032
:10523000DF91CF911F910F91FF90EF90DF90CF9072
:10524000BF90AF909F908F907F906F900C94CA4EBC
:10525000DF91CF911F910F91FF90EF90DF90CF9052
:10526000BF90AF909F908F907F906F900895CF9256
:10527000DF92EF92FF920E94926C6B017C0187E0BB
:1052800098E00E94E661892B51F087E098E00E9447
:105290005061682F86E298E00E946E6AF0CF0E940B
:1052A000926C6C197D098E099F09683E73408105D7
:1052B000910528F3FF90EF90DF90CF9008958F92A3
:1052C0009F92AF92BF92CF92DF92EF92FF920F9395
:1052D0001F93CF93DF9380917201882309F458C103
:1052E000ADE1CA2ED12CB8E3AB2EB12C81E099E010
:1052F0000E94CA4E61E081E099E00E944C4C1092FD
:105300001409109213091092120910921109EE2437
:10531000E394F12C09E010E020E830E050E040E0B8
:1053200070E060E081E099E00E94E542C1E0D0E0F9
:10533000D0930E09C0930D09D0931009C0930F09A3
:105340006AE771E081E099E00E94356ED09314091C
:10535000C0931309D0931209C0931109D0930E0979
:10536000C0930D09D0921009C0920F096FE671E049
:1053700081E099E00E94356E609170017091710139
:105380004AE050E081E099E00E94FC6ED0930E0963
:10539000C0930D09B0921009A0920F096BE571E05E
:1053A00081E099E00E94356E81E099E00E945F52B1
:1053B0008091700190917101069724F01092710113
:1053C0001092700180E00E94D06D892B31F50E940F
:1053D000926C00910E0310910F03209110033091F5
:1053E0001103601B710B820B930B693C71058105E6
:1053F000910548F080917001909171010196909310
:105400007101809370010E94926C60930E037093FF
:105410000F03809310039093110381E00E94D06DDD
:10542000892B09F063CF0E94926C00910E031091BA
:105430000F032091100330911103601B710B820B3D
:10544000930B693C71058105910508F44FCF0E94CB
:10545000926C60930E0370930F03809310039093EC
:105460001103E0917001F0917101EE0FFF1FEC59F3
:10547000FE4F808191810E942F1260937B01709377
:105480007C0180937D0190937E01E0917001F09109
:105490007101EE0FFF1FEC59FE4F8081918106963E
:1054A0000E942F1260937F0170938001809381018D
:1054B0009093820181E099E00E94CA4EEE24E39429
:1054C000F12C09E010E020E830E050E040E070E02E
:1054D00060E081E099E00E94E54210921409109288
:1054E00013091092120910921109C1E0D0E0D09373
:1054F0000E09C0930D09D0931009C0930F0967E4FA
:1055000071E081E099E00E94356E609170017091C8
:1055100071014AE050E081E099E00E94FC6ED09376
:105520001409C0931309D0931209C0931109D093A1
:105530000E09C0930D098DE190E0909310098093BE
:105540000F0940917B0150917C0160917D01709128
:105550007E0126E030E081E099E00E9401706CE27B
:1055600081E099E00E94616E40917F01509180013D
:10557000609181017091820126E030E081E099E044
:105580000E94017081E099E00E945F5210927201C6
:105590000E94372981E00E94D06D892BE1F50E949D
:1055A000926C00910A0310910B0320910C0330912F
:1055B0000D03601B710B820B930B693C7105810518
:1055C0009105F8F02DEC3CEC4CEC5DE3609193011F
:1055D0007091940180919501909196010E94C473FD
:1055E0006093930170939401809395019093960139
:1055F0008091620190916301019690936301809381
:1056000062010E94926C60930A0370930B03809373
:105610000C0390930D0380E00E94D06D892BB9F5A7
:105620000E94926C009106031091070320910803D9
:1056300030910903601B710B820B930B693C710560
:1056400081059105D0F020E030E040E85FE3609113
:1056500093017091940180919501909196010E941F
:105660006870609393017093940180939501909377
:10567000960110926301109262010E94926C6093F5
:1056800006037093070380930803909309038091A6
:105690006201909163010B9724F0109263011092C4
:1056A000620120E030E040E251E4609193017091AA
:1056B000940180919501909196010E94B7731816FC
:1056C00064F480E090E0A0E2B1E4809393019093D1
:1056D0009401A0939501B09396012FEF36EE4BED18
:1056E0005EE2609193017091940180919501909197
:1056F00096010E94617187FF0CC08FEF96EEABEDB3
:10570000BEE28093930190939401A0939501B0938E
:10571000960110928F088091940890919508A0911D
:105720009608B0919708892B8A2B8B2B49F5EE248C
:10573000E394F12C09E010E02BE230E04CE150E082
:105740006AE270E081E099E00E94E542109214095B
:105750001092130910921209109211098BE290E035
:1057600090930E0980930D098DE190E090931009BC
:1057700080930F096FE371E081E099E00E94356E3C
:1057800086E298E00E942D67609383017093840104
:10579000809385019093860186E298E00E94596784
:1057A0005B016C01A0928701B0928801C0928901CF
:1057B000D0928A01E0908301F090840100918501EC
:1057C0001091860120917F013091800140918101EB
:1057D0005091820160917B0170917C0180917D01EB
:1057E00090917E010E94396560938B0170938C01CA
:1057F00080938D0190938E01A0908701B0908801D5
:10580000C0908901D0908A01E0908301F0908401DA
:10581000009185011091860120917F0130918001D6
:10582000409181015091820160917B0170917C01D6
:1058300080917D0190917E010E9429664B015C015F
:1058400020919301309194014091950150919601DE
:1058500060918B0170918C0180918D0190918E01EE
:105860000E94C4736B017C01C0928B01D0928C01A9
:10587000E0928D01F0928E0120E030E044EB52E4A2
:10588000C501B4010E94677060938F01709390010D
:1058900080939101909392012BED3FE049E450E415
:1058A0000E94C47320E030E044E353E40E946B7133
:1058B0004B015C010E9466719B01AC01C701B601FE
:1058C0000E94C47320E030E040E852E40E94687017
:1058D0000E94DD7160937301709374018093750170
:1058E00090937601C501B4010E9431749B01AC0113
:1058F000C701B6010E94C47320E030E040E052E4EA
:105900000E9468700E94DD71609377017093780146
:105910008093790190937A0181E099E00E94CA4EC8
:1059200061E081E099E00E944C4C81E090E090932E
:10593000140980931309909312098093110990938D
:105940000E0980930D099093100980930F0968E761
:1059500081E099E00E94616EC0909301D090940123
:10596000E0909501F090960120E030E040E85FE3A0
:10597000C701B6010E9461712091620130916301FB
:1059800087FD02C022E030E0B701A60181E099E086
:105990000E94017082E690E090930E0980930D09B9
:1059A00081E090E09093100980930F0986E598E0DC
:1059B0000E940A68C82F86E298E00E9459670E94F8
:1059C0001C13BC016C0F711D4AE050E081E099E0AE
:1059D0000E94FC6E6AE381E099E00E94616E86E5B8
:1059E00098E00E9418688A3030F46DE371E081E03D
:1059F00099E00E94356E86E598E00E9418684AE0BA
:105A000050E0682F81E099E00E94106F81E090E003
:105A100090930E0980930D0988E390E0909310090C
:105A200080930F0940918B0150918C0160918D0101
:105A300070918E0122E030E081E099E00E940170D7
:105A40006AE371E081E099E00E94356E20918F0158
:105A500030919001409191015091920160E070E08D
:105A600084EB93E40E94677020E030E044EB52E462
:105A70000E946770AB01BC0122E030E081E099E058
:105A80000E94017066E371E081E099E00E94356E4A
:105A9000CC24C394D12C9AE0E92EF12C0AE010E03A
:105AA00025E736E14BE150E06BE370E081E099E0FF
:105AB0000E94B24840917701509178014B505109B2
:105AC00060917301709174016250710921E636E1B1
:105AD00081E099E00E94B24800917701109178012D
